{
  "contractName": "Balances",
  "abi": [
    {
      "constant": true,
      "inputs": [
        {
          "name": "",
          "type": "address"
        }
      ],
      "name": "balances",
      "outputs": [
        {
          "name": "",
          "type": "uint256"
        }
      ],
      "payable": false,
      "stateMutability": "view",
      "type": "function"
    },
    {
      "anonymous": false,
      "inputs": [
        {
          "indexed": true,
          "name": "sender",
          "type": "address"
        },
        {
          "indexed": true,
          "name": "to",
          "type": "address"
        },
        {
          "indexed": false,
          "name": "amount",
          "type": "uint256"
        }
      ],
      "name": "LogBalanceIncreased",
      "type": "event"
    },
    {
      "anonymous": false,
      "inputs": [
        {
          "indexed": true,
          "name": "sender",
          "type": "address"
        },
        {
          "indexed": false,
          "name": "amount",
          "type": "uint256"
        }
      ],
      "name": "LogBalanceWithdraw",
      "type": "event"
    },
    {
      "constant": false,
      "inputs": [],
      "name": "withdraw",
      "outputs": [],
      "payable": false,
      "stateMutability": "nonpayable",
      "type": "function"
    }
  ],
  "bytecode": "0x608060405234801561001057600080fd5b5061020d806100206000396000f3fe608060405234801561001057600080fd5b50600436106100365760003560e01c806327e235e31461003b5780633ccfd60b14610093575b600080fd5b61007d6004803603602081101561005157600080fd5b81019080803573ffffffffffffffffffffffffffffffffffffffff16906020019092919050505061009d565b6040518082815260200191505060405180910390f35b61009b6100b5565b005b60006020528060005260406000206000915090505481565b60008060003373ffffffffffffffffffffffffffffffffffffffff1673ffffffffffffffffffffffffffffffffffffffff1681526020019081526020016000205490506000811161010557600080fd5b60008060003373ffffffffffffffffffffffffffffffffffffffff1673ffffffffffffffffffffffffffffffffffffffff168152602001908152602001600020819055503373ffffffffffffffffffffffffffffffffffffffff167f5e26e1a51df37b08449f88d0f25b11970834ee857ac90f4e445d36d5bcdc9157826040518082815260200191505060405180910390a23373ffffffffffffffffffffffffffffffffffffffff166108fc829081150290604051600060405180830381858888f193505050501580156101dd573d6000803e3d6000fd5b505056fea165627a7a72305820d49f565c050125719dc3ea066430c5330cb34035b94033f4c10a79b920698b7d0029",
  "source": "pragma solidity >= 0.5.0 <0.6.0;\nimport \"./SafeMath.sol\";\ncontract Balances {\n  using SafeMath for uint256;\n\n  mapping(address => uint256) public balances;\n\n  event LogBalanceIncreased(\n    address indexed sender,\n    address indexed to,\n    uint256 amount\n  );\n\n  event LogBalanceWithdraw(\n    address indexed sender,\n    uint256 amount\n  );\n\n  function increaseBalance(address to, uint256 amount) internal {\n    require(amount > 0);\n    balances[to] = balances[to].add(amount);\n    emit LogBalanceIncreased(msg.sender, to, amount);\n  }\n\n  function withdraw() public {\n    uint256 balance = balances[msg.sender];\n    require(balance > 0);\n    balances[msg.sender] = 0;\n    emit LogBalanceWithdraw(msg.sender, balance);\n    msg.sender.transfer(balance);\n  }\n\n}\n",
  "sourcePath": "/home/mad/personal/b9lab/ethereum/module-9/contracts/Balances.sol",
  "compiler": {
    "name": "solc",
    "version": "0.5.7+commit.6da8b019.Emscripten.clang"
  },
  "schemaVersion": "3.0.10",
  "updatedAt": "2019-07-10T17:43:16.377Z",
  "devdoc": {
    "methods": {}
  },
  "userdoc": {
    "methods": {}
  }
}