{
  "contractName": "PrvateRockPaperScissors",
  "abi": [
    {
      "constant": false,
      "inputs": [],
      "name": "resume",
      "outputs": [],
      "payable": false,
      "stateMutability": "nonpayable",
      "type": "function"
    },
    {
      "constant": false,
      "inputs": [
        {
          "name": "newOwner",
          "type": "address"
        }
      ],
      "name": "setOwner",
      "outputs": [],
      "payable": false,
      "stateMutability": "nonpayable",
      "type": "function"
    },
    {
      "constant": true,
      "inputs": [
        {
          "name": "",
          "type": "address"
        }
      ],
      "name": "balances",
      "outputs": [
        {
          "name": "",
          "type": "uint256"
        }
      ],
      "payable": false,
      "stateMutability": "view",
      "type": "function"
    },
    {
      "constant": false,
      "inputs": [],
      "name": "withdraw",
      "outputs": [],
      "payable": false,
      "stateMutability": "nonpayable",
      "type": "function"
    },
    {
      "constant": false,
      "inputs": [],
      "name": "kill",
      "outputs": [],
      "payable": false,
      "stateMutability": "nonpayable",
      "type": "function"
    },
    {
      "constant": false,
      "inputs": [],
      "name": "pause",
      "outputs": [],
      "payable": false,
      "stateMutability": "nonpayable",
      "type": "function"
    },
    {
      "constant": true,
      "inputs": [],
      "name": "getOwner",
      "outputs": [
        {
          "name": "",
          "type": "address"
        }
      ],
      "payable": false,
      "stateMutability": "view",
      "type": "function"
    },
    {
      "constant": true,
      "inputs": [],
      "name": "isDead",
      "outputs": [
        {
          "name": "",
          "type": "bool"
        }
      ],
      "payable": false,
      "stateMutability": "view",
      "type": "function"
    },
    {
      "constant": true,
      "inputs": [],
      "name": "isPaused",
      "outputs": [
        {
          "name": "",
          "type": "bool"
        }
      ],
      "payable": false,
      "stateMutability": "view",
      "type": "function"
    },
    {
      "inputs": [
        {
          "name": "startPaused",
          "type": "bool"
        }
      ],
      "payable": false,
      "stateMutability": "nonpayable",
      "type": "constructor"
    },
    {
      "anonymous": false,
      "inputs": [
        {
          "indexed": true,
          "name": "sender",
          "type": "address"
        },
        {
          "indexed": true,
          "name": "gameId",
          "type": "bytes32"
        },
        {
          "indexed": true,
          "name": "secondPlayer",
          "type": "address"
        },
        {
          "indexed": false,
          "name": "stake",
          "type": "uint256"
        },
        {
          "indexed": false,
          "name": "deadline",
          "type": "uint256"
        }
      ],
      "name": "LogMatchCreated",
      "type": "event"
    },
    {
      "anonymous": false,
      "inputs": [
        {
          "indexed": true,
          "name": "sender",
          "type": "address"
        },
        {
          "indexed": true,
          "name": "gameId",
          "type": "bytes32"
        },
        {
          "indexed": false,
          "name": "stake",
          "type": "uint256"
        },
        {
          "indexed": false,
          "name": "deadline",
          "type": "uint256"
        },
        {
          "indexed": false,
          "name": "hand",
          "type": "uint8"
        }
      ],
      "name": "LogMatchAccepted",
      "type": "event"
    },
    {
      "anonymous": false,
      "inputs": [
        {
          "indexed": true,
          "name": "sender",
          "type": "address"
        },
        {
          "indexed": true,
          "name": "gameId",
          "type": "bytes32"
        },
        {
          "indexed": true,
          "name": "winner",
          "type": "address"
        },
        {
          "indexed": false,
          "name": "firstPlayerWage",
          "type": "uint256"
        },
        {
          "indexed": false,
          "name": "secondPlayerWage",
          "type": "uint256"
        }
      ],
      "name": "LogMatchResolved",
      "type": "event"
    },
    {
      "anonymous": false,
      "inputs": [
        {
          "indexed": true,
          "name": "sender",
          "type": "address"
        },
        {
          "indexed": true,
          "name": "gameId",
          "type": "bytes32"
        }
      ],
      "name": "LogPunishCalled",
      "type": "event"
    },
    {
      "anonymous": false,
      "inputs": [
        {
          "indexed": true,
          "name": "sender",
          "type": "address"
        },
        {
          "indexed": true,
          "name": "gameId",
          "type": "bytes32"
        }
      ],
      "name": "LogCancelCalled",
      "type": "event"
    },
    {
      "anonymous": false,
      "inputs": [
        {
          "indexed": true,
          "name": "sender",
          "type": "address"
        },
        {
          "indexed": true,
          "name": "to",
          "type": "address"
        },
        {
          "indexed": false,
          "name": "amount",
          "type": "uint256"
        }
      ],
      "name": "LogBalanceIncreased",
      "type": "event"
    },
    {
      "anonymous": false,
      "inputs": [
        {
          "indexed": true,
          "name": "sender",
          "type": "address"
        },
        {
          "indexed": false,
          "name": "amount",
          "type": "uint256"
        }
      ],
      "name": "LogBalanceWithdraw",
      "type": "event"
    },
    {
      "anonymous": false,
      "inputs": [
        {
          "indexed": true,
          "name": "sender",
          "type": "address"
        },
        {
          "indexed": false,
          "name": "state",
          "type": "bool"
        }
      ],
      "name": "LogPaused",
      "type": "event"
    },
    {
      "anonymous": false,
      "inputs": [
        {
          "indexed": true,
          "name": "sender",
          "type": "address"
        }
      ],
      "name": "LogKilled",
      "type": "event"
    },
    {
      "anonymous": false,
      "inputs": [
        {
          "indexed": true,
          "name": "sender",
          "type": "address"
        },
        {
          "indexed": true,
          "name": "newOwner",
          "type": "address"
        }
      ],
      "name": "LogOwnerChanged",
      "type": "event"
    },
    {
      "constant": false,
      "inputs": [
        {
          "name": "secondPlayer",
          "type": "address"
        },
        {
          "name": "hashedHand",
          "type": "bytes32"
        }
      ],
      "name": "createMatch",
      "outputs": [
        {
          "name": "",
          "type": "bytes32"
        }
      ],
      "payable": true,
      "stateMutability": "payable",
      "type": "function"
    },
    {
      "constant": false,
      "inputs": [
        {
          "name": "firstPlayerHashedHand",
          "type": "bytes32"
        },
        {
          "name": "secondPlayerClearHand",
          "type": "uint8"
        }
      ],
      "name": "acceptMatch",
      "outputs": [],
      "payable": true,
      "stateMutability": "payable",
      "type": "function"
    },
    {
      "constant": false,
      "inputs": [
        {
          "name": "firstPlayerHand",
          "type": "uint8"
        },
        {
          "name": "secret",
          "type": "uint256"
        }
      ],
      "name": "resolveMatch",
      "outputs": [],
      "payable": false,
      "stateMutability": "nonpayable",
      "type": "function"
    },
    {
      "constant": false,
      "inputs": [
        {
          "name": "firstPlayerHashedHand",
          "type": "bytes32"
        }
      ],
      "name": "punish",
      "outputs": [],
      "payable": false,
      "stateMutability": "nonpayable",
      "type": "function"
    },
    {
      "constant": false,
      "inputs": [
        {
          "name": "firstPlayerHand",
          "type": "uint8"
        },
        {
          "name": "secret",
          "type": "uint256"
        }
      ],
      "name": "cancelGame",
      "outputs": [],
      "payable": false,
      "stateMutability": "nonpayable",
      "type": "function"
    },
    {
      "constant": true,
      "inputs": [
        {
          "name": "hand",
          "type": "uint8"
        },
        {
          "name": "secret",
          "type": "uint256"
        }
      ],
      "name": "hashHand",
      "outputs": [
        {
          "name": "",
          "type": "bytes32"
        }
      ],
      "payable": false,
      "stateMutability": "view",
      "type": "function"
    }
  ],
  "bytecode": "0x608060405234801561001057600080fd5b506040516020806123518339810180604052602081101561003057600080fd5b810190808051906020019092919050505080336000806101000a81548173ffffffffffffffffffffffffffffffffffffffff021916908373ffffffffffffffffffffffffffffffffffffffff16021790555080600060146101000a81548160ff02191690831515021790555050506122a4806100ad6000396000f3fe6080604052600436106100e85760003560e01c806350f90bf61161008a57806399baa10c1161005957806399baa10c14610383578063b187bd26146103b2578063bd8fbe21146103e1578063cea2e25a1461043d576100e8565b806350f90bf6146102785780636c9382d9146102da5780638456cb5914610315578063893d20e81461032c576100e8565b806316cd81b4116100c657806316cd81b41461019d57806327e235e3146101e55780633ccfd60b1461024a57806341c0e1b514610261576100e8565b8063046f7da2146100ed5780630a5a68d81461010457806313af40351461014c575b600080fd5b3480156100f957600080fd5b50610102610478565b005b34801561011057600080fd5b5061014a6004803603604081101561012757600080fd5b81019080803560ff16906020019092919080359060200190929190505050610645565b005b34801561015857600080fd5b5061019b6004803603602081101561016f57600080fd5b81019080803573ffffffffffffffffffffffffffffffffffffffff1690602001909291905050506108ba565b005b3480156101a957600080fd5b506101e3600480360360408110156101c057600080fd5b81019080803560ff16906020019092919080359060200190929190505050610abc565b005b3480156101f157600080fd5b506102346004803603602081101561020857600080fd5b81019080803573ffffffffffffffffffffffffffffffffffffffff169060200190929190505050610ed2565b6040518082815260200191505060405180910390f35b34801561025657600080fd5b5061025f610eea565b005b34801561026d57600080fd5b50610276611018565b005b6102c46004803603604081101561028e57600080fd5b81019080803573ffffffffffffffffffffffffffffffffffffffff169060200190929190803590602001909291905050506111d6565b6040518082815260200191505060405180910390f35b3480156102e657600080fd5b50610313600480360360208110156102fd57600080fd5b8101908080359060200190929190505050611549565b005b34801561032157600080fd5b5061032a6116f6565b005b34801561033857600080fd5b506103416118c5565b604051808273ffffffffffffffffffffffffffffffffffffffff1673ffffffffffffffffffffffffffffffffffffffff16815260200191505060405180910390f35b34801561038f57600080fd5b506103986118ee565b604051808215151515815260200191505060405180910390f35b3480156103be57600080fd5b506103c7611904565b604051808215151515815260200191505060405180910390f35b3480156103ed57600080fd5b506104276004803603604081101561040457600080fd5b81019080803560ff1690602001909291908035906020019092919050505061191a565b6040518082815260200191505060405180910390f35b6104766004803603604081101561045357600080fd5b8101908080359060200190929190803560ff169060200190929190505050611a5e565b005b600060159054906101000a900460ff161561049257600080fd5b6000809054906101000a900473ffffffffffffffffffffffffffffffffffffffff1673ffffffffffffffffffffffffffffffffffffffff163373ffffffffffffffffffffffffffffffffffffffff1614610554576040517f08c379a000000000000000000000000000000000000000000000000000000000815260040180806020018281038252601f8152602001807f43616e206f6e6c792062652063616c6c656420627920746865206f776e65720081525060200191505060405180910390fd5b600060149054906101000a900460ff166105d6576040517f08c379a000000000000000000000000000000000000000000000000000000000815260040180806020018281038252601b8152602001807f54686520636f6e7472616374206d75737420626520706175736564000000000081525060200191505060405180910390fd5b60008060146101000a81548160ff0219169083151502179055503373ffffffffffffffffffffffffffffffffffffffff167f9885b484a3068de5c38fb9073ed8489371efc9514b9a174a9cd1df5326d2e4546000604051808215151515815260200191505060405180910390a2565b6000610651838361191a565b9050600060026000838152602001908152602001600020600101549050600081116106e4576040517f08c379a00000000000000000000000000000000000000000000000000000000081526004018080602001828103825260088152602001807f4e6f207374616b6500000000000000000000000000000000000000000000000081525060200191505060405180910390fd5b4260026000848152602001908152602001600020600201541115610770576040517f08c379a00000000000000000000000000000000000000000000000000000000081526004018080602001828103825260178152602001807f446561646c696e6520686173206e6f742070617373656400000000000000000081525060200191505060405180910390fd5b6000600381111561077d57fe5b6002600084815260200190815260200160002060000160009054906101000a900460ff1660038111156107ac57fe5b1415610820576040517f08c379a00000000000000000000000000000000000000000000000000000000081526004018080602001828103825260198152602001807f43616e6e6f742063616e63656c2c2067616d65206973206f6e0000000000000081525060200191505060405180910390fd5b61082982611e79565b813373ffffffffffffffffffffffffffffffffffffffff167fe0538c81f11de7da12f713b1b2db71af87bb5e6b028cba17eb1a07637bcbd25960405160405180910390a33373ffffffffffffffffffffffffffffffffffffffff166108fc829081150290604051600060405180830381858888f193505050501580156108b3573d6000803e3d6000fd5b5050505050565b6000809054906101000a900473ffffffffffffffffffffffffffffffffffffffff1673ffffffffffffffffffffffffffffffffffffffff163373ffffffffffffffffffffffffffffffffffffffff161461097c576040517f08c379a000000000000000000000000000000000000000000000000000000000815260040180806020018281038252601f8152602001807f43616e206f6e6c792062652063616c6c656420627920746865206f776e65720081525060200191505060405180910390fd5b600073ffffffffffffffffffffffffffffffffffffffff168173ffffffffffffffffffffffffffffffffffffffff161415610a1f576040517f08c379a00000000000000000000000000000000000000000000000000000000081526004018080602001828103825260118152602001807f6e65774f776e657220697320656d70747900000000000000000000000000000081525060200191505060405180910390fd5b806000806101000a81548173ffffffffffffffffffffffffffffffffffffffff021916908373ffffffffffffffffffffffffffffffffffffffff1602179055508073ffffffffffffffffffffffffffffffffffffffff163373ffffffffffffffffffffffffffffffffffffffff167ffcf23a92150d56e85e3a3d33b357493246e55783095eb6a733eb8439ffc752c860405160405180910390a350565b6000610ac8838361191a565b905060006002600083815260200190815260200160002060000160019054906101000a900473ffffffffffffffffffffffffffffffffffffffff169050600073ffffffffffffffffffffffffffffffffffffffff168173ffffffffffffffffffffffffffffffffffffffff161415610ba8576040517f08c379a000000000000000000000000000000000000000000000000000000000815260040180806020018281038252600f8152602001807f496e76616c69642067616d65204944000000000000000000000000000000000081525060200191505060405180910390fd5b60006002600084815260200190815260200160002060000160009054906101000a900460ff1690506000816003811115610bde57fe5b60ff161415610c55576040517f08c379a00000000000000000000000000000000000000000000000000000000081526004018080602001828103825260188152602001807f506c6179657220686173206e6f74206d6f76656420796574000000000000000081525060200191505060405180910390fd5b600060026000858152602001908152602001600020600201549050804210610ce5576040517f08c379a000000000000000000000000000000000000000000000000000000000815260040180806020018281038252600f8152602001807f446561646c696e6520706173736564000000000000000000000000000000000081525060200191505060405180910390fd5b6000600260008681526020019081526020016000206001015490506000806000856003811115610d1157fe5b8a6003811115610d1d57fe5b1415610d5157610d4a6002610d3c600387611f2690919063ffffffff16565b611fb590919063ffffffff16565b9250610ddf565b60036001876003811115610d6157fe5b0160ff1681610d6c57fe5b0660ff168a6003811115610d7c57fe5b60ff1614610d8a5786610d8c565b335b90508073ffffffffffffffffffffffffffffffffffffffff163373ffffffffffffffffffffffffffffffffffffffff1614610dda57610dd5600385611f2690919063ffffffff16565b610ddc565b835b92505b610df2838561203b90919063ffffffff16565b9150610dfd88611e79565b8073ffffffffffffffffffffffffffffffffffffffff16883373ffffffffffffffffffffffffffffffffffffffff167f3ee2aa7957f8a7603edc63df917b6a9238e9bc8d7f3104116438a721163c10028686604051808381526020018281526020019250505060405180910390a46000841115610ec657610e7e87836120c4565b3373ffffffffffffffffffffffffffffffffffffffff166108fc849081150290604051600060405180830381858888f19350505050158015610ec4573d6000803e3d6000fd5b505b50505050505050505050565b60016020528060005260406000206000915090505481565b6000600160003373ffffffffffffffffffffffffffffffffffffffff1673ffffffffffffffffffffffffffffffffffffffff16815260200190815260200160002054905060008111610f3b57600080fd5b6000600160003373ffffffffffffffffffffffffffffffffffffffff1673ffffffffffffffffffffffffffffffffffffffff168152602001908152602001600020819055503373ffffffffffffffffffffffffffffffffffffffff167f5e26e1a51df37b08449f88d0f25b11970834ee857ac90f4e445d36d5bcdc9157826040518082815260200191505060405180910390a23373ffffffffffffffffffffffffffffffffffffffff166108fc829081150290604051600060405180830381858888f19350505050158015611014573d6000803e3d6000fd5b5050565b600060159054906101000a900460ff161561103257600080fd5b6000809054906101000a900473ffffffffffffffffffffffffffffffffffffffff1673ffffffffffffffffffffffffffffffffffffffff163373ffffffffffffffffffffffffffffffffffffffff16146110f4576040517f08c379a000000000000000000000000000000000000000000000000000000000815260040180806020018281038252601f8152602001807f43616e206f6e6c792062652063616c6c656420627920746865206f776e65720081525060200191505060405180910390fd5b600060149054906101000a900460ff16611176576040517f08c379a000000000000000000000000000000000000000000000000000000000815260040180806020018281038252601b8152602001807f54686520636f6e7472616374206d75737420626520706175736564000000000081525060200191505060405180910390fd5b6001600060156101000a81548160ff0219169083151502179055503373ffffffffffffffffffffffffffffffffffffffff167fdd1d1672156846fdc9d6e65d5701535f177a41834051f5f7328be7f4252bcb3160405160405180910390a2565b60008060149054906101000a900460ff161561125a576040517f08c379a00000000000000000000000000000000000000000000000000000000081526004018080602001828103825260168152602001807f54686520636f6e7472616374206973207061757365640000000000000000000081525060200191505060405180910390fd5b600060159054906101000a900460ff161561127457600080fd5b600073ffffffffffffffffffffffffffffffffffffffff168373ffffffffffffffffffffffffffffffffffffffff161415611317576040517f08c379a000000000000000000000000000000000000000000000000000000000815260040180806020018281038252601d8152602001807f506c617965722063616e6e6f74206265207a65726f206164647265737300000081525060200191505060405180910390fd5b600061132f62015180426121cf90919063ffffffff16565b905060006002600085815260200190815260200160002060020154146113bd576040517f08c379a000000000000000000000000000000000000000000000000000000000815260040180806020018281038252600d8152602001807f50617373776f726420757365640000000000000000000000000000000000000081525060200191505060405180910390fd5b60003490506001600282816113ce57fe5b0614156113f6576113e03360016120c4565b6113f460018261203b90919063ffffffff16565b505b60405180608001604052806000600381111561140e57fe5b81526020018673ffffffffffffffffffffffffffffffffffffffff168152602001828152602001838152506002600086815260200190815260200160002060008201518160000160006101000a81548160ff0219169083600381111561147057fe5b021790555060208201518160000160016101000a81548173ffffffffffffffffffffffffffffffffffffffff021916908373ffffffffffffffffffffffffffffffffffffffff16021790555060408201518160010155606082015181600201559050508473ffffffffffffffffffffffffffffffffffffffff16843373ffffffffffffffffffffffffffffffffffffffff167f4d541a24a924c40e1be9a18375570368425b1eb682edeed7efb5ede1fc0ec4628486604051808381526020018281526020019250505060405180910390a4505092915050565b42600260008381526020019081526020016000206002015411156115d5576040517f08c379a00000000000000000000000000000000000000000000000000000000081526004018080602001828103825260178152602001807f446561646c696e6520686173206e6f742070617373656400000000000000000081525060200191505060405180910390fd5b3373ffffffffffffffffffffffffffffffffffffffff166002600083815260200190815260200160002060000160019054906101000a900473ffffffffffffffffffffffffffffffffffffffff1673ffffffffffffffffffffffffffffffffffffffff161461164357600080fd5b60006002600083815260200190815260200160002060010154905061166782611e79565b813373ffffffffffffffffffffffffffffffffffffffff167ff79f7e0fb85fa016cb8cdef27e5b662934a15c1ea9e819c75af680acdab7abd960405160405180910390a33373ffffffffffffffffffffffffffffffffffffffff166108fc829081150290604051600060405180830381858888f193505050501580156116f1573d6000803e3d6000fd5b505050565b600060159054906101000a900460ff161561171057600080fd5b6000809054906101000a900473ffffffffffffffffffffffffffffffffffffffff1673ffffffffffffffffffffffffffffffffffffffff163373ffffffffffffffffffffffffffffffffffffffff16146117d2576040517f08c379a000000000000000000000000000000000000000000000000000000000815260040180806020018281038252601f8152602001807f43616e206f6e6c792062652063616c6c656420627920746865206f776e65720081525060200191505060405180910390fd5b600060149054906101000a900460ff1615611855576040517f08c379a00000000000000000000000000000000000000000000000000000000081526004018080602001828103825260168152602001807f54686520636f6e7472616374206973207061757365640000000000000000000081525060200191505060405180910390fd5b6001600060146101000a81548160ff0219169083151502179055503373ffffffffffffffffffffffffffffffffffffffff167f9885b484a3068de5c38fb9073ed8489371efc9514b9a174a9cd1df5326d2e4546001604051808215151515815260200191505060405180910390a2565b60008060009054906101000a900473ffffffffffffffffffffffffffffffffffffffff16905090565b60008060159054906101000a900460ff16905090565b60008060149054906101000a900460ff16905090565b600080600381111561192857fe5b83600381111561193457fe5b14156119a8576040517f08c379a00000000000000000000000000000000000000000000000000000000081526004018080602001828103825260098152602001807f4e756c6c2068616e64000000000000000000000000000000000000000000000081525060200191505060405180910390fd5b30338484604051602001808573ffffffffffffffffffffffffffffffffffffffff1673ffffffffffffffffffffffffffffffffffffffff1660601b81526014018473ffffffffffffffffffffffffffffffffffffffff1673ffffffffffffffffffffffffffffffffffffffff1660601b8152601401836003811115611a2957fe5b60ff1660f81b815260010182815260200194505050505060405160208183030381529060405280519060200120905092915050565b6000600260008481526020019081526020016000206002015490506000811415611af0576040517f08c379a00000000000000000000000000000000000000000000000000000000081526004018080602001828103825260138152602001807f47616d6520646f6573206e6f742065786973740000000000000000000000000081525060200191505060405180910390fd5b804210611b65576040517f08c379a000000000000000000000000000000000000000000000000000000000815260040180806020018281038252600f8152602001807f446561646c696e6520706173736564000000000000000000000000000000000081525060200191505060405180910390fd5b3373ffffffffffffffffffffffffffffffffffffffff166002600085815260200190815260200160002060000160019054906101000a900473ffffffffffffffffffffffffffffffffffffffff1673ffffffffffffffffffffffffffffffffffffffff1614611c3c576040517f08c379a000000000000000000000000000000000000000000000000000000000815260040180806020018281038252600e8152602001807f496e76616c69642073656e64657200000000000000000000000000000000000081525060200191505060405180910390fd5b60006002600085815260200190815260200160002060010154905034611c6c600283611f2690919063ffffffff16565b14611cdf576040517f08c379a000000000000000000000000000000000000000000000000000000000815260040180806020018281038252600d8152602001807f496e76616c6964207374616b650000000000000000000000000000000000000081525060200191505060405180910390fd5b60006003811115611cec57fe5b836003811115611cf857fe5b1415611d6c576040517f08c379a000000000000000000000000000000000000000000000000000000000815260040180806020018281038252600c8152602001807f496e76616c69642068616e64000000000000000000000000000000000000000081525060200191505060405180910390fd5b611d8262015180426121cf90919063ffffffff16565b9150611d9734826121cf90919063ffffffff16565b9050826002600086815260200190815260200160002060000160006101000a81548160ff02191690836003811115611dcb57fe5b0217905550806002600086815260200190815260200160002060010181905550816002600086815260200190815260200160002060020181905550833373ffffffffffffffffffffffffffffffffffffffff167fd712950997bd4a6b050d5b36cad9ee58bcc270b3621e52fd7b78e36fef19769783858760405180848152602001838152602001826003811115611e5e57fe5b60ff168152602001935050505060405180910390a350505050565b60006002600083815260200190815260200160002060000160006101000a81548160ff02191690836003811115611eac57fe5b021790555060006002600083815260200190815260200160002060000160016101000a81548173ffffffffffffffffffffffffffffffffffffffff021916908373ffffffffffffffffffffffffffffffffffffffff1602179055506000600260008381526020019081526020016000206001018190555050565b6000808211611f9d576040517f08c379a000000000000000000000000000000000000000000000000000000000815260040180806020018281038252601a8152602001807f536166654d6174683a206469766973696f6e206279207a65726f00000000000081525060200191505060405180910390fd5b6000828481611fa857fe5b0490508091505092915050565b600080831415611fc85760009050612035565b6000828402905082848281611fd957fe5b0414612030576040517f08c379a00000000000000000000000000000000000000000000000000000000081526004018080602001828103825260218152602001806122586021913960400191505060405180910390fd5b809150505b92915050565b6000828211156120b3576040517f08c379a000000000000000000000000000000000000000000000000000000000815260040180806020018281038252601e8152602001807f536166654d6174683a207375627472616374696f6e206f766572666c6f77000081525060200191505060405180910390fd5b600082840390508091505092915050565b600081116120d157600080fd5b61212381600160008573ffffffffffffffffffffffffffffffffffffffff1673ffffffffffffffffffffffffffffffffffffffff168152602001908152602001600020546121cf90919063ffffffff16565b600160008473ffffffffffffffffffffffffffffffffffffffff1673ffffffffffffffffffffffffffffffffffffffff168152602001908152602001600020819055508173ffffffffffffffffffffffffffffffffffffffff163373ffffffffffffffffffffffffffffffffffffffff167f8d6dc51e8945c5e6a4ddb872612ec2b1f5e375a97daebdbb6a03a64e7c659209836040518082815260200191505060405180910390a35050565b60008082840190508381101561224d576040517f08c379a000000000000000000000000000000000000000000000000000000000815260040180806020018281038252601b8152602001807f536166654d6174683a206164646974696f6e206f766572666c6f77000000000081525060200191505060405180910390fd5b809150509291505056fe536166654d6174683a206d756c7469706c69636174696f6e206f766572666c6f77a165627a7a72305820c96a7e16b767477d1c83118d648151988738c459c6cabac30102892917939f4e0029",
  "source": "pragma solidity >= 0.5.0 <0.6.0;\n\n\nimport \"./Pausable.sol\";\nimport \"./Balances.sol\";\n\ncontract PrvateRockPaperScissors is Pausable, Balances {\n\n  enum Hand {NULL, ROCK, PAPER, SCISSORS}\n\n  struct Game {\n    Hand secondPlayerHand;\n    address secondPlayer;\n    uint256 stake;\n    uint256 deadline;\n  }\n\n  mapping(bytes32 => Game) games;\n\n  event LogMatchCreated(\n    address indexed sender,\n    bytes32 indexed gameId,\n    address indexed secondPlayer,\n    uint256 stake,\n    uint256 deadline\n  );\n\n  event LogMatchAccepted(\n    address indexed sender,\n    bytes32 indexed gameId,\n    uint256 stake,\n    uint256 deadline,\n    Hand hand\n  );\n\n  event LogMatchResolved(\n    address indexed sender,\n    bytes32 indexed gameId,\n    address indexed winner,\n    uint256 firstPlayerWage,\n    uint256 secondPlayerWage\n  );\n\n  event LogPunishCalled(\n    address indexed sender,\n    bytes32 indexed gameId\n  );\n\n  event LogCancelCalled(\n    address indexed sender,\n    bytes32 indexed gameId\n  );\n\n  constructor(bool startPaused) Pausable(startPaused) public {}\n\n\n  /*\n    @dev: This function lets a player create a match. He / she must specify the challenged address\n    and a hidden hand that will act as game ID (key to the mapping)\n\n    @param secondPlayer address is the challenged player's address\n    @param bytes32 hashedHand is a hash obtained by calling hashHand() that will act as key.\n    \n  */\n  function createMatch(address secondPlayer, bytes32 hashedHand) public payable mustBeRunning mustBeAlive returns (bytes32) {\n    require(secondPlayer != address(0), \"Player cannot be zero address\");\n\n    uint256 deadline = now.add(1 days);\n    require(games[hashedHand].deadline == 0, \"Password used\");\n\n    uint256 stake = msg.value;\n\n    // We need even values so that we can return the stake safely in resolveMatch()\n    // and the total stake is perfectly divisible in 3 parts: creator's incentive, creator's stake,\n    // and second player's stake.\n    if(stake % 2 == 1){\n      increaseBalance(msg.sender, 1);\n      stake.sub(1);\n    }\n\n    games[hashedHand] = Game({\n      secondPlayer: secondPlayer,\n      deadline: deadline,\n      secondPlayerHand: Hand.NULL,\n      stake: stake\n    });\n\n    emit LogMatchCreated(msg.sender, hashedHand, secondPlayer, stake, deadline);\n  }\n\n  /*\n    @dev: This function lets a challenged player accept the match.\n    Only the specified player can accept it.\n\n    @param firstPlayerHashedHand bytes32 is the game key\n    @param hand Hand the weapon choice\n    @param secret uint256 the secret used to hash the hand\n  */\n  function acceptMatch(bytes32 firstPlayerHashedHand, Hand secondPlayerClearHand) public payable {\n    uint256 deadline = games[firstPlayerHashedHand].deadline;\n    require(deadline != 0, \"Game does not exist\");\n    require(now < deadline, \"Deadline passed\");\n    require(games[firstPlayerHashedHand].secondPlayer == msg.sender, \"Invalid sender\");\n    uint256 stake = games[firstPlayerHashedHand].stake;\n    require(stake.div(2) == msg.value, \"Invalid stake\");\n    require(secondPlayerClearHand != Hand.NULL, \"Invalid hand\");\n\n    deadline = now.add(1 days);\n    stake = stake.add(msg.value);\n\n    games[firstPlayerHashedHand].secondPlayerHand = secondPlayerClearHand;\n    games[firstPlayerHashedHand].stake = stake;\n    games[firstPlayerHashedHand].deadline = deadline;\n\n    emit LogMatchAccepted(msg.sender, firstPlayerHashedHand, stake, deadline, secondPlayerClearHand);\n\n  }\n\n  /*\n    @dev: This function resolves a game, must be called by the game creator.\n\n    @param hand Hand the weapon choice\n    @param secret uint256 the secret used to hash the hand\n  */\n  function resolveMatch(Hand firstPlayerHand, uint256 secret) public {\n    bytes32 hashedHand = hashHand(firstPlayerHand, secret);\n    address secondPlayer = games[hashedHand].secondPlayer;\n    require(secondPlayer != address(0), \"Invalid game ID\");\n\n    Hand secondPlayerHand = games[hashedHand].secondPlayerHand;\n    require(uint8(secondPlayerHand) != 0, \"Player has not moved yet\");\n\n    uint256 deadline = games[hashedHand].deadline;\n    require(now < deadline, \"Deadline passed\");\n\n    uint256 stake = games[hashedHand].stake;\n    uint256 firstPlayerWage;\n    uint256 secondPlayerWage;\n    address winner;\n\n    if(firstPlayerHand == secondPlayerHand) { // Tie\n      firstPlayerWage = (stake.div(3)).mul(2);\n    } else {\n      // Explanation:\n      // ROCK (0) => PAPER (1) => SCISSOR (2) => ROCK (0)\n      // If player 1 is to the right of player 2, he wins. Otherwise, he loses.\n      winner = uint8(firstPlayerHand) == ((uint8(secondPlayerHand) + 1) % 3) ? msg.sender : secondPlayer;\n      firstPlayerWage = msg.sender == winner ? stake : stake.div(3);\n    }\n\n    secondPlayerWage = stake.sub(firstPlayerWage);\n\n    zeroOutGameEntry(hashedHand);\n\n    emit LogMatchResolved(\n      msg.sender,\n      hashedHand,\n      winner, // if 0, tie\n      firstPlayerWage,\n      secondPlayerWage\n    );\n\n    if(stake > 0)  { // If there was a pool, update the balances\n      increaseBalance(secondPlayer, secondPlayerWage);\n      msg.sender.transfer(firstPlayerWage);\n    }\n  }\n\n  /*\n    @dev: This function lets the second player of a game punish the creator for not revealing\n    his / her hand.\n\n    @param firstPlayerHashedHand the key to the game's mapping\n  */\n  function punish(bytes32 firstPlayerHashedHand) public {\n    require(games[firstPlayerHashedHand].deadline <= now, \"Deadline has not passed\");\n    require(games[firstPlayerHashedHand].secondPlayer == msg.sender);\n\n    uint256 stake = games[firstPlayerHashedHand].stake;\n\n    zeroOutGameEntry(firstPlayerHashedHand);\n\n    emit LogPunishCalled(msg.sender, firstPlayerHashedHand);\n\n    msg.sender.transfer(stake);\n  }\n\n  /*\n    @dev: Lets the game's creator recover the stake after the timeout\n\n    @param hand Hand the weapon choice\n    @param secret uint256 the secret used to hash the hand\n  */\n  function cancelGame(Hand firstPlayerHand, uint256 secret) public {\n    bytes32 hashedHand = hashHand(firstPlayerHand, secret);\n\n    uint256 stake = games[hashedHand].stake;\n    // Does not make sense to cancel a game that has not stake. This allows us to filter\n    // both non-existant games and finished games.\n    require(stake > 0, \"No stake\");\n\n    require(games[hashedHand].deadline <= now, \"Deadline has not passed\");\n    require(games[hashedHand].secondPlayerHand != Hand.NULL, \"Cannot cancel, game is on\");\n\n    zeroOutGameEntry(hashedHand);\n\n    emit LogCancelCalled(msg.sender, hashedHand);\n\n    msg.sender.transfer(stake);\n  }\n\n  /*\n    @dev: This function lets the user pick a hand and hash it with a random secret, generated off-chain.\n\n    This also serves as key for the games mapping.\n\n    We could optimize the storage costs by adding the challenged player to the hash,\n    but this would mean that the hash ought to be shared out of band.\n\n    @param hand Hand the weapon choice\n    @param secret uint256 random secret to hide the hand\n  */\n  function hashHand(Hand hand, uint256 secret) public view returns (bytes32) {\n    require(hand != Hand.NULL, \"Null hand\");\n    return keccak256(abi.encodePacked(address(this), msg.sender, hand, secret));\n  }\n\n  /*\n    @dev: This function zeroes out game entries and reduces world state\n\n    @param gameId bytes32 the key to the mapping\n  */\n  function zeroOutGameEntry(bytes32 gameId) internal {\n    games[gameId].secondPlayerHand = Hand.NULL;\n    games[gameId].secondPlayer = address(0);\n    games[gameId].stake = 0;\n  }\n\n\n\n}\n",
  "sourcePath": "/home/mad/personal/b9lab/ethereum/module-9/contracts/PrivateRockPaperScissors.sol",
  "compiler": {
    "name": "solc",
    "version": "0.5.7+commit.6da8b019.Emscripten.clang"
  },
  "schemaVersion": "3.0.10",
  "updatedAt": "2019-07-11T18:31:25.779Z",
  "devdoc": {
    "methods": {}
  },
  "userdoc": {
    "methods": {}
  }
}