{
  "contractName": "PublicRockPaperScissors",
  "abi": [
    {
      "constant": false,
      "inputs": [],
      "name": "resume",
      "outputs": [],
      "payable": false,
      "stateMutability": "nonpayable",
      "type": "function"
    },
    {
      "constant": true,
      "inputs": [
        {
          "name": "",
          "type": "uint256"
        }
      ],
      "name": "games",
      "outputs": [
        {
          "name": "firstPlayerHashedHand",
          "type": "bytes32"
        },
        {
          "name": "secondPlayerHashedHand",
          "type": "bytes32"
        },
        {
          "name": "stake",
          "type": "uint256"
        },
        {
          "name": "deadline",
          "type": "uint256"
        },
        {
          "name": "firstPlayer",
          "type": "address"
        },
        {
          "name": "secondPlayer",
          "type": "address"
        },
        {
          "name": "firstPlayerHand",
          "type": "uint8"
        },
        {
          "name": "secondPlayerHand",
          "type": "uint8"
        }
      ],
      "payable": false,
      "stateMutability": "view",
      "type": "function"
    },
    {
      "constant": false,
      "inputs": [
        {
          "name": "newOwner",
          "type": "address"
        }
      ],
      "name": "setOwner",
      "outputs": [],
      "payable": false,
      "stateMutability": "nonpayable",
      "type": "function"
    },
    {
      "constant": true,
      "inputs": [
        {
          "name": "",
          "type": "address"
        }
      ],
      "name": "balances",
      "outputs": [
        {
          "name": "",
          "type": "uint256"
        }
      ],
      "payable": false,
      "stateMutability": "view",
      "type": "function"
    },
    {
      "constant": true,
      "inputs": [],
      "name": "_oneDayInSeconds",
      "outputs": [
        {
          "name": "",
          "type": "uint256"
        }
      ],
      "payable": false,
      "stateMutability": "view",
      "type": "function"
    },
    {
      "constant": false,
      "inputs": [],
      "name": "withdraw",
      "outputs": [],
      "payable": false,
      "stateMutability": "nonpayable",
      "type": "function"
    },
    {
      "constant": false,
      "inputs": [],
      "name": "kill",
      "outputs": [],
      "payable": false,
      "stateMutability": "nonpayable",
      "type": "function"
    },
    {
      "constant": true,
      "inputs": [],
      "name": "gameCount",
      "outputs": [
        {
          "name": "",
          "type": "uint256"
        }
      ],
      "payable": false,
      "stateMutability": "view",
      "type": "function"
    },
    {
      "constant": false,
      "inputs": [],
      "name": "pause",
      "outputs": [],
      "payable": false,
      "stateMutability": "nonpayable",
      "type": "function"
    },
    {
      "constant": true,
      "inputs": [],
      "name": "getOwner",
      "outputs": [
        {
          "name": "",
          "type": "address"
        }
      ],
      "payable": false,
      "stateMutability": "view",
      "type": "function"
    },
    {
      "constant": true,
      "inputs": [],
      "name": "isDead",
      "outputs": [
        {
          "name": "",
          "type": "bool"
        }
      ],
      "payable": false,
      "stateMutability": "view",
      "type": "function"
    },
    {
      "constant": true,
      "inputs": [],
      "name": "isPaused",
      "outputs": [
        {
          "name": "",
          "type": "bool"
        }
      ],
      "payable": false,
      "stateMutability": "view",
      "type": "function"
    },
    {
      "inputs": [
        {
          "name": "startPaused",
          "type": "bool"
        }
      ],
      "payable": false,
      "stateMutability": "nonpayable",
      "type": "constructor"
    },
    {
      "payable": false,
      "stateMutability": "nonpayable",
      "type": "fallback"
    },
    {
      "anonymous": false,
      "inputs": [
        {
          "indexed": true,
          "name": "sender",
          "type": "address"
        },
        {
          "indexed": true,
          "name": "gameId",
          "type": "uint256"
        },
        {
          "indexed": false,
          "name": "firstPlayerHashedHand",
          "type": "bytes32"
        },
        {
          "indexed": false,
          "name": "deadline",
          "type": "uint256"
        },
        {
          "indexed": false,
          "name": "stake",
          "type": "uint256"
        }
      ],
      "name": "LogMatchCreated",
      "type": "event"
    },
    {
      "anonymous": false,
      "inputs": [
        {
          "indexed": true,
          "name": "sender",
          "type": "address"
        },
        {
          "indexed": true,
          "name": "gameId",
          "type": "uint256"
        },
        {
          "indexed": false,
          "name": "secondPlayerHashedHand",
          "type": "bytes32"
        },
        {
          "indexed": false,
          "name": "deadline",
          "type": "uint256"
        },
        {
          "indexed": false,
          "name": "stake",
          "type": "uint256"
        }
      ],
      "name": "LogMatchChallenged",
      "type": "event"
    },
    {
      "anonymous": false,
      "inputs": [
        {
          "indexed": true,
          "name": "sender",
          "type": "address"
        },
        {
          "indexed": true,
          "name": "gameId",
          "type": "uint256"
        },
        {
          "indexed": false,
          "name": "hand",
          "type": "uint8"
        }
      ],
      "name": "LogHandRevealed",
      "type": "event"
    },
    {
      "anonymous": false,
      "inputs": [
        {
          "indexed": true,
          "name": "sender",
          "type": "address"
        },
        {
          "indexed": true,
          "name": "gameId",
          "type": "uint256"
        },
        {
          "indexed": true,
          "name": "winner",
          "type": "address"
        }
      ],
      "name": "LogMatchResolved",
      "type": "event"
    },
    {
      "anonymous": false,
      "inputs": [
        {
          "indexed": true,
          "name": "sender",
          "type": "address"
        },
        {
          "indexed": true,
          "name": "gameId",
          "type": "uint256"
        }
      ],
      "name": "LogMatchCancelled",
      "type": "event"
    },
    {
      "anonymous": false,
      "inputs": [
        {
          "indexed": true,
          "name": "sender",
          "type": "address"
        },
        {
          "indexed": true,
          "name": "gameId",
          "type": "uint256"
        },
        {
          "indexed": false,
          "name": "punished",
          "type": "address"
        }
      ],
      "name": "LogPunishment",
      "type": "event"
    },
    {
      "anonymous": false,
      "inputs": [
        {
          "indexed": true,
          "name": "sender",
          "type": "address"
        },
        {
          "indexed": true,
          "name": "to",
          "type": "address"
        },
        {
          "indexed": false,
          "name": "amount",
          "type": "uint256"
        }
      ],
      "name": "LogBalanceIncreased",
      "type": "event"
    },
    {
      "anonymous": false,
      "inputs": [
        {
          "indexed": true,
          "name": "sender",
          "type": "address"
        },
        {
          "indexed": false,
          "name": "amount",
          "type": "uint256"
        }
      ],
      "name": "LogBalanceWithdraw",
      "type": "event"
    },
    {
      "anonymous": false,
      "inputs": [
        {
          "indexed": true,
          "name": "sender",
          "type": "address"
        },
        {
          "indexed": false,
          "name": "state",
          "type": "bool"
        }
      ],
      "name": "LogPaused",
      "type": "event"
    },
    {
      "anonymous": false,
      "inputs": [
        {
          "indexed": true,
          "name": "sender",
          "type": "address"
        }
      ],
      "name": "LogKilled",
      "type": "event"
    },
    {
      "anonymous": false,
      "inputs": [
        {
          "indexed": true,
          "name": "sender",
          "type": "address"
        },
        {
          "indexed": true,
          "name": "newOwner",
          "type": "address"
        }
      ],
      "name": "LogOwnerChanged",
      "type": "event"
    },
    {
      "constant": true,
      "inputs": [
        {
          "name": "hand",
          "type": "uint8"
        },
        {
          "name": "secret",
          "type": "uint256"
        }
      ],
      "name": "hashHand",
      "outputs": [
        {
          "name": "",
          "type": "bytes32"
        }
      ],
      "payable": false,
      "stateMutability": "view",
      "type": "function"
    },
    {
      "constant": true,
      "inputs": [
        {
          "name": "hand",
          "type": "uint8"
        }
      ],
      "name": "handEnumToNumber",
      "outputs": [
        {
          "name": "",
          "type": "uint8"
        }
      ],
      "payable": false,
      "stateMutability": "pure",
      "type": "function"
    },
    {
      "constant": false,
      "inputs": [
        {
          "name": "gameId",
          "type": "uint256"
        },
        {
          "name": "hand",
          "type": "uint8"
        },
        {
          "name": "secret",
          "type": "uint256"
        }
      ],
      "name": "revealHand",
      "outputs": [
        {
          "name": "",
          "type": "bool"
        }
      ],
      "payable": false,
      "stateMutability": "nonpayable",
      "type": "function"
    },
    {
      "constant": false,
      "inputs": [
        {
          "name": "firstPlayerHashedHand",
          "type": "bytes32"
        }
      ],
      "name": "createMatch",
      "outputs": [
        {
          "name": "",
          "type": "uint256"
        }
      ],
      "payable": true,
      "stateMutability": "payable",
      "type": "function"
    },
    {
      "constant": false,
      "inputs": [
        {
          "name": "gameId",
          "type": "uint256"
        },
        {
          "name": "secondPlayerHashedHand",
          "type": "bytes32"
        }
      ],
      "name": "challengeMatch",
      "outputs": [
        {
          "name": "",
          "type": "bool"
        }
      ],
      "payable": true,
      "stateMutability": "payable",
      "type": "function"
    },
    {
      "constant": false,
      "inputs": [
        {
          "name": "gameId",
          "type": "uint256"
        }
      ],
      "name": "resolveMatch",
      "outputs": [
        {
          "name": "",
          "type": "bool"
        }
      ],
      "payable": false,
      "stateMutability": "nonpayable",
      "type": "function"
    },
    {
      "constant": false,
      "inputs": [
        {
          "name": "gameId",
          "type": "uint256"
        }
      ],
      "name": "cancelMatch",
      "outputs": [
        {
          "name": "",
          "type": "bool"
        }
      ],
      "payable": false,
      "stateMutability": "nonpayable",
      "type": "function"
    },
    {
      "constant": false,
      "inputs": [
        {
          "name": "gameId",
          "type": "uint256"
        }
      ],
      "name": "punish",
      "outputs": [
        {
          "name": "",
          "type": "bool"
        }
      ],
      "payable": false,
      "stateMutability": "nonpayable",
      "type": "function"
    }
  ],
  "bytecode": "0x608060405234801561001057600080fd5b506040516020806129e88339810180604052602081101561003057600080fd5b810190808051906020019092919050505080336000806101000a81548173ffffffffffffffffffffffffffffffffffffffff021916908373ffffffffffffffffffffffffffffffffffffffff16021790555080600060146101000a81548160ff021916908315150217905550505061293b806100ad6000396000f3fe60806040526004361061011f5760003560e01c806341c0e1b5116100a057806399baa10c1161006457806399baa10c1461058e578063a06ade8d146105bd578063b187bd261461060d578063bd8fbe211461063c578063d02c8cdf146106985761011f565b806341c0e1b51461048b5780634d1975b4146104a257806364e40a48146104cd5780638456cb5914610520578063893d20e8146105375761011f565b8063202c02d9116100e7578063202c02d91461033857806327e235e3146103a257806330546ad01461040757806334b17f45146104325780633ccfd60b146104745761011f565b8063046f7da214610131578063117a5b901461014857806313af40351461023c5780631c04cebf1461028d5780631edb946d146102e0575b34801561012b57600080fd5b50600080fd5b34801561013d57600080fd5b506101466106eb565b005b34801561015457600080fd5b506101816004803603602081101561016b57600080fd5b81019080803590602001909291905050506108b8565b604051808981526020018881526020018781526020018681526020018573ffffffffffffffffffffffffffffffffffffffff1673ffffffffffffffffffffffffffffffffffffffff1681526020018473ffffffffffffffffffffffffffffffffffffffff1673ffffffffffffffffffffffffffffffffffffffff16815260200183600381111561020d57fe5b60ff16815260200182600381111561022157fe5b60ff1681526020019850505050505050505060405180910390f35b34801561024857600080fd5b5061028b6004803603602081101561025f57600080fd5b81019080803573ffffffffffffffffffffffffffffffffffffffff16906020019092919050505061095a565b005b34801561029957600080fd5b506102c6600480360360208110156102b057600080fd5b8101908080359060200190929190505050610b5c565b604051808215151515815260200191505060405180910390f35b3480156102ec57600080fd5b5061031c6004803603602081101561030357600080fd5b81019080803560ff169060200190929190505050610e57565b604051808260ff1660ff16815260200191505060405180910390f35b34801561034457600080fd5b506103886004803603606081101561035b57600080fd5b8101908080359060200190929190803560ff16906020019092919080359060200190929190505050610ed6565b604051808215151515815260200191505060405180910390f35b3480156103ae57600080fd5b506103f1600480360360208110156103c557600080fd5b81019080803573ffffffffffffffffffffffffffffffffffffffff16906020019092919050505061132b565b6040518082815260200191505060405180910390f35b34801561041357600080fd5b5061041c611343565b6040518082815260200191505060405180910390f35b61045e6004803603602081101561044857600080fd5b810190808035906020019092919050505061134a565b6040518082815260200191505060405180910390f35b34801561048057600080fd5b5061048961165b565b005b34801561049757600080fd5b506104a0611789565b005b3480156104ae57600080fd5b506104b7611947565b6040518082815260200191505060405180910390f35b3480156104d957600080fd5b50610506600480360360208110156104f057600080fd5b810190808035906020019092919050505061194d565b604051808215151515815260200191505060405180910390f35b34801561052c57600080fd5b50610535611c5b565b005b34801561054357600080fd5b5061054c611e2a565b604051808273ffffffffffffffffffffffffffffffffffffffff1673ffffffffffffffffffffffffffffffffffffffff16815260200191505060405180910390f35b34801561059a57600080fd5b506105a3611e53565b604051808215151515815260200191505060405180910390f35b6105f3600480360360408110156105d357600080fd5b810190808035906020019092919080359060200190929190505050611e69565b604051808215151515815260200191505060405180910390f35b34801561061957600080fd5b5061062261216f565b604051808215151515815260200191505060405180910390f35b34801561064857600080fd5b506106826004803603604081101561065f57600080fd5b81019080803560ff16906020019092919080359060200190929190505050612185565b6040518082815260200191505060405180910390f35b3480156106a457600080fd5b506106d1600480360360208110156106bb57600080fd5b81019080803590602001909291905050506122c9565b604051808215151515815260200191505060405180910390f35b600060159054906101000a900460ff161561070557600080fd5b6000809054906101000a900473ffffffffffffffffffffffffffffffffffffffff1673ffffffffffffffffffffffffffffffffffffffff163373ffffffffffffffffffffffffffffffffffffffff16146107c7576040517f08c379a000000000000000000000000000000000000000000000000000000000815260040180806020018281038252601f8152602001807f43616e206f6e6c792062652063616c6c656420627920746865206f776e65720081525060200191505060405180910390fd5b600060149054906101000a900460ff16610849576040517f08c379a000000000000000000000000000000000000000000000000000000000815260040180806020018281038252601b8152602001807f54686520636f6e7472616374206d75737420626520706175736564000000000081525060200191505060405180910390fd5b60008060146101000a81548160ff0219169083151502179055503373ffffffffffffffffffffffffffffffffffffffff167f9885b484a3068de5c38fb9073ed8489371efc9514b9a174a9cd1df5326d2e4546000604051808215151515815260200191505060405180910390a2565b60036020528060005260406000206000915090508060000154908060010154908060020154908060030154908060040160009054906101000a900473ffffffffffffffffffffffffffffffffffffffff16908060050160009054906101000a900473ffffffffffffffffffffffffffffffffffffffff16908060050160149054906101000a900460ff16908060050160159054906101000a900460ff16905088565b6000809054906101000a900473ffffffffffffffffffffffffffffffffffffffff1673ffffffffffffffffffffffffffffffffffffffff163373ffffffffffffffffffffffffffffffffffffffff1614610a1c576040517f08c379a000000000000000000000000000000000000000000000000000000000815260040180806020018281038252601f8152602001807f43616e206f6e6c792062652063616c6c656420627920746865206f776e65720081525060200191505060405180910390fd5b600073ffffffffffffffffffffffffffffffffffffffff168173ffffffffffffffffffffffffffffffffffffffff161415610abf576040517f08c379a00000000000000000000000000000000000000000000000000000000081526004018080602001828103825260118152602001807f6e65774f776e657220697320656d70747900000000000000000000000000000081525060200191505060405180910390fd5b806000806101000a81548173ffffffffffffffffffffffffffffffffffffffff021916908373ffffffffffffffffffffffffffffffffffffffff1602179055508073ffffffffffffffffffffffffffffffffffffffff163373ffffffffffffffffffffffffffffffffffffffff167ffcf23a92150d56e85e3a3d33b357493246e55783095eb6a733eb8439ffc752c860405160405180910390a350565b600042600360008481526020019081526020016000206003015410610b8057600080fd5b6000801b60036000848152602001908152602001600020600101541415610ba657600080fd5b60006003600084815260200190815260200160002060020154905060008060006003600087815260200190815260200160002060040160009054906101000a900473ffffffffffffffffffffffffffffffffffffffff16905060006003600088815260200190815260200160002060050160009054906101000a900473ffffffffffffffffffffffffffffffffffffffff16905060006003811115610c4757fe5b6003600089815260200190815260200160002060050160159054906101000a900460ff166003811115610c7657fe5b1415610d1257610c906002866123be90919063ffffffff16565b9350863373ffffffffffffffffffffffffffffffffffffffff167f8e3b4580e0cc6ba1aefe8f30edc8150c49d6417a68e3dcb43c3da41934ec9ea784604051808273ffffffffffffffffffffffffffffffffffffffff1673ffffffffffffffffffffffffffffffffffffffff16815260200191505060405180910390a3610d29565b610d266002866123be90919063ffffffff16565b92505b60006003811115610d3657fe5b6003600089815260200190815260200160002060050160149054906101000a900460ff166003811115610d6557fe5b1415610e0157610d7f6002866123be90919063ffffffff16565b9250863373ffffffffffffffffffffffffffffffffffffffff167f8e3b4580e0cc6ba1aefe8f30edc8150c49d6417a68e3dcb43c3da41934ec9ea783604051808273ffffffffffffffffffffffffffffffffffffffff1673ffffffffffffffffffffffffffffffffffffffff16815260200191505060405180910390a3610e18565b610e156002866123be90919063ffffffff16565b93505b610e218761244d565b6000841115610e3557610e3482856125f6565b5b6000831115610e4957610e4881846125f6565b5b600195505050505050919050565b6000806003811115610e6557fe5b826003811115610e7157fe5b1415610e7c57600080fd5b60016003811115610e8957fe5b826003811115610e9557fe5b1415610ea45760009050610ed1565b60026003811115610eb157fe5b826003811115610ebd57fe5b1415610ecc5760019050610ed1565b600290505b919050565b6000806003811115610ee457fe5b836003811115610ef057fe5b1415610f64576040517f08c379a00000000000000000000000000000000000000000000000000000000081526004018080602001828103825260198152602001807f43616e6e6f742072657665616c2061206e756c6c2068616e640000000000000081525060200191505060405180910390fd5b6000600360008681526020019081526020016000206001015490506000801b811415610ff8576040517f08c379a00000000000000000000000000000000000000000000000000000000081526004018080602001828103825260208152602001807f4d757374207761697420666f72207365636f6e6420706c61796572206a6f696e81525060200191505060405180910390fd5b60006110048585612185565b90506003600087815260200190815260200160002060040160009054906101000a900473ffffffffffffffffffffffffffffffffffffffff1673ffffffffffffffffffffffffffffffffffffffff163373ffffffffffffffffffffffffffffffffffffffff16141561113757600360008781526020019081526020016000206000015481146110fb576040517f08c379a000000000000000000000000000000000000000000000000000000000815260040180806020018281038252601c8152602001807f48616e64206f72207365637265742061726520696e636f72726563740000000081525060200191505060405180910390fd5b846003600088815260200190815260200160002060050160146101000a81548160ff0219169083600381111561112d57fe5b02179055506112c1565b6003600087815260200190815260200160002060050160009054906101000a900473ffffffffffffffffffffffffffffffffffffffff1673ffffffffffffffffffffffffffffffffffffffff163373ffffffffffffffffffffffffffffffffffffffff16141561125257818114611216576040517f08c379a000000000000000000000000000000000000000000000000000000000815260040180806020018281038252601c8152602001807f48616e64206f72207365637265742061726520696e636f72726563740000000081525060200191505060405180910390fd5b846003600088815260200190815260200160002060050160156101000a81548160ff0219169083600381111561124857fe5b02179055506112c0565b6040517f08c379a000000000000000000000000000000000000000000000000000000000815260040180806020018281038252601f8152602001807f596f7520646f206e6f742062656c6f6e6720746f2074686973206d617463680081525060200191505060405180910390fd5b5b853373ffffffffffffffffffffffffffffffffffffffff167f08424557aedf8baf993d8f93f7346757bbfdbdc601fd2b6c484ebb9396f3d38e876040518082600381111561130b57fe5b60ff16815260200191505060405180910390a36001925050509392505050565b60016020528060005260406000206000915090505481565b6201518081565b60008060149054906101000a900460ff16156113ce576040517f08c379a00000000000000000000000000000000000000000000000000000000081526004018080602001828103825260168152602001807f54686520636f6e7472616374206973207061757365640000000000000000000081525060200191505060405180910390fd5b600060159054906101000a900460ff16156113e857600080fd5b60006201518042019050600080600234816113ff57fe5b06141561140e57349050611430565b61142260013461270190919063ffffffff16565b905061142f3360016125f6565b5b600060025490506040518061010001604052808681526020016000801b81526020018381526020018481526020013373ffffffffffffffffffffffffffffffffffffffff168152602001600073ffffffffffffffffffffffffffffffffffffffff168152602001600060038111156114a457fe5b8152602001600060038111156114b657fe5b815250600360008381526020019081526020016000206000820151816000015560208201518160010155604082015181600201556060820151816003015560808201518160040160006101000a81548173ffffffffffffffffffffffffffffffffffffffff021916908373ffffffffffffffffffffffffffffffffffffffff16021790555060a08201518160050160006101000a81548173ffffffffffffffffffffffffffffffffffffffff021916908373ffffffffffffffffffffffffffffffffffffffff16021790555060c08201518160050160146101000a81548160ff021916908360038111156115a657fe5b021790555060e08201518160050160156101000a81548160ff021916908360038111156115cf57fe5b02179055509050506115eb60018261278a90919063ffffffff16565b600281905550803373ffffffffffffffffffffffffffffffffffffffff167fbac98a3c35db9363c3cc2b970b161e2317cb09b3d00086a6e1c502810898ff3987868660405180848152602001838152602001828152602001935050505060405180910390a3809350505050919050565b6000600160003373ffffffffffffffffffffffffffffffffffffffff1673ffffffffffffffffffffffffffffffffffffffff168152602001908152602001600020549050600081116116ac57600080fd5b6000600160003373ffffffffffffffffffffffffffffffffffffffff1673ffffffffffffffffffffffffffffffffffffffff168152602001908152602001600020819055503373ffffffffffffffffffffffffffffffffffffffff167f5e26e1a51df37b08449f88d0f25b11970834ee857ac90f4e445d36d5bcdc9157826040518082815260200191505060405180910390a23373ffffffffffffffffffffffffffffffffffffffff166108fc829081150290604051600060405180830381858888f19350505050158015611785573d6000803e3d6000fd5b5050565b600060159054906101000a900460ff16156117a357600080fd5b6000809054906101000a900473ffffffffffffffffffffffffffffffffffffffff1673ffffffffffffffffffffffffffffffffffffffff163373ffffffffffffffffffffffffffffffffffffffff1614611865576040517f08c379a000000000000000000000000000000000000000000000000000000000815260040180806020018281038252601f8152602001807f43616e206f6e6c792062652063616c6c656420627920746865206f776e65720081525060200191505060405180910390fd5b600060149054906101000a900460ff166118e7576040517f08c379a000000000000000000000000000000000000000000000000000000000815260040180806020018281038252601b8152602001807f54686520636f6e7472616374206d75737420626520706175736564000000000081525060200191505060405180910390fd5b6001600060156101000a81548160ff0219169083151502179055503373ffffffffffffffffffffffffffffffffffffffff167fdd1d1672156846fdc9d6e65d5701535f177a41834051f5f7328be7f4252bcb3160405160405180910390a2565b60025481565b600080600381111561195b57fe5b6003600084815260200190815260200160002060050160149054906101000a900460ff16600381111561198a57fe5b141580156119d25750600060038111156119a057fe5b6003600084815260200190815260200160002060050160159054906101000a900460ff1660038111156119cf57fe5b14155b611a27576040517f08c379a000000000000000000000000000000000000000000000000000000000815260040180806020018281038252602b8152602001806128e5602b913960400191505060405180910390fd5b60006003600084815260200190815260200160002060040160009054906101000a900473ffffffffffffffffffffffffffffffffffffffff16905060006003600085815260200190815260200160002060050160009054906101000a900473ffffffffffffffffffffffffffffffffffffffff1690506000611acb6003600087815260200190815260200160002060050160149054906101000a900460ff16610e57565b60ff1690506000611afe6003600088815260200190815260200160002060050160159054906101000a900460ff16610e57565b60ff1690506000818314611b2157600182018314611b1c5783611b1e565b845b90505b81831415611b325760009050611b51565b60036001830181611b3f57fe5b068314611b4c5783611b4e565b845b90505b6000600360008981526020019081526020016000206002015490506000811115611be857600073ffffffffffffffffffffffffffffffffffffffff168273ffffffffffffffffffffffffffffffffffffffff161415611bdc576000611bc06002836123be90919063ffffffff16565b9050611bcc87826125f6565b611bd686826125f6565b50611be7565b611be682826125f6565b5b5b611bf18861244d565b8173ffffffffffffffffffffffffffffffffffffffff16883373ffffffffffffffffffffffffffffffffffffffff167f806224ee21ee73b3df625751cf26a3a8b0575098a3fe5a86d8fd834d352924e160405160405180910390a460019650505050505050919050565b600060159054906101000a900460ff1615611c7557600080fd5b6000809054906101000a900473ffffffffffffffffffffffffffffffffffffffff1673ffffffffffffffffffffffffffffffffffffffff163373ffffffffffffffffffffffffffffffffffffffff1614611d37576040517f08c379a000000000000000000000000000000000000000000000000000000000815260040180806020018281038252601f8152602001807f43616e206f6e6c792062652063616c6c656420627920746865206f776e65720081525060200191505060405180910390fd5b600060149054906101000a900460ff1615611dba576040517f08c379a00000000000000000000000000000000000000000000000000000000081526004018080602001828103825260168152602001807f54686520636f6e7472616374206973207061757365640000000000000000000081525060200191505060405180910390fd5b6001600060146101000a81548160ff0219169083151502179055503373ffffffffffffffffffffffffffffffffffffffff167f9885b484a3068de5c38fb9073ed8489371efc9514b9a174a9cd1df5326d2e4546001604051808215151515815260200191505060405180910390a2565b60008060009054906101000a900473ffffffffffffffffffffffffffffffffffffffff16905090565b60008060159054906101000a900460ff16905090565b600060036000848152602001908152602001600020600301544210611ef6576040517f08c379a00000000000000000000000000000000000000000000000000000000081526004018080602001828103825260138152602001807f446561646c696e6520686173207061737365640000000000000000000000000081525060200191505060405180910390fd5b600073ffffffffffffffffffffffffffffffffffffffff166003600085815260200190815260200160002060050160009054906101000a900473ffffffffffffffffffffffffffffffffffffffff1673ffffffffffffffffffffffffffffffffffffffff1614611fce576040517f08c379a000000000000000000000000000000000000000000000000000000000815260040180806020018281038252601f8152602001807f54686973206d6174636820697320616c726561647920636f6e7465737465640081525060200191505060405180910390fd5b6003600084815260200190815260200160002060020154341461203c576040517f08c379a000000000000000000000000000000000000000000000000000000000815260040180806020018281038252602b8152602001806128ba602b913960400191505060405180910390fd5b60006201518042019050600061205c60023461281290919063ffffffff16565b9050336003600087815260200190815260200160002060050160006101000a81548173ffffffffffffffffffffffffffffffffffffffff021916908373ffffffffffffffffffffffffffffffffffffffff160217905550836003600087815260200190815260200160002060010181905550806003600087815260200190815260200160002060020181905550816003600087815260200190815260200160002060030181905550843373ffffffffffffffffffffffffffffffffffffffff167fbdf99e757528c6ecd2136c247797717e60f4b2e32776ae6b05cce36a7ef7fc7a86858560405180848152602001838152602001828152602001935050505060405180910390a360019250505092915050565b60008060149054906101000a900460ff16905090565b600080600381111561219357fe5b83600381111561219f57fe5b1415612213576040517f08c379a00000000000000000000000000000000000000000000000000000000081526004018080602001828103825260098152602001807f4e756c6c2068616e64000000000000000000000000000000000000000000000081525060200191505060405180910390fd5b30338484604051602001808573ffffffffffffffffffffffffffffffffffffffff1673ffffffffffffffffffffffffffffffffffffffff1660601b81526014018473ffffffffffffffffffffffffffffffffffffffff1673ffffffffffffffffffffffffffffffffffffffff1660601b815260140183600381111561229457fe5b60ff1660f81b815260010182815260200194505050505060405160208183030381529060405280519060200120905092915050565b6000426003600084815260200190815260200160002060030154106122ed57600080fd5b6000801b60036000848152602001908152602001600020600101541461231257600080fd5b6123686003600084815260200190815260200160002060040160009054906101000a900473ffffffffffffffffffffffffffffffffffffffff1660036000858152602001908152602001600020600201546125f6565b6123718261244d565b813373ffffffffffffffffffffffffffffffffffffffff167fcef77bfcc06ba773dbf67c27b4c1d3873c0074ce97e8751d72df8d36dbab2ed860405160405180910390a360019050919050565b6000808211612435576040517f08c379a000000000000000000000000000000000000000000000000000000000815260040180806020018281038252601a8152602001807f536166654d6174683a206469766973696f6e206279207a65726f00000000000081525060200191505060405180910390fd5b600082848161244057fe5b0490508091505092915050565b6040518061010001604052806000801b81526020016000801b81526020016000815260200160008152602001600073ffffffffffffffffffffffffffffffffffffffff168152602001600073ffffffffffffffffffffffffffffffffffffffff168152602001600060038111156124c057fe5b8152602001600060038111156124d257fe5b815250600360008381526020019081526020016000206000820151816000015560208201518160010155604082015181600201556060820151816003015560808201518160040160006101000a81548173ffffffffffffffffffffffffffffffffffffffff021916908373ffffffffffffffffffffffffffffffffffffffff16021790555060a08201518160050160006101000a81548173ffffffffffffffffffffffffffffffffffffffff021916908373ffffffffffffffffffffffffffffffffffffffff16021790555060c08201518160050160146101000a81548160ff021916908360038111156125c257fe5b021790555060e08201518160050160156101000a81548160ff021916908360038111156125eb57fe5b021790555090505050565b6000811161260357600080fd5b61265581600160008573ffffffffffffffffffffffffffffffffffffffff1673ffffffffffffffffffffffffffffffffffffffff1681526020019081526020016000205461278a90919063ffffffff16565b600160008473ffffffffffffffffffffffffffffffffffffffff1673ffffffffffffffffffffffffffffffffffffffff168152602001908152602001600020819055508173ffffffffffffffffffffffffffffffffffffffff163373ffffffffffffffffffffffffffffffffffffffff167f8d6dc51e8945c5e6a4ddb872612ec2b1f5e375a97daebdbb6a03a64e7c659209836040518082815260200191505060405180910390a35050565b600082821115612779576040517f08c379a000000000000000000000000000000000000000000000000000000000815260040180806020018281038252601e8152602001807f536166654d6174683a207375627472616374696f6e206f766572666c6f77000081525060200191505060405180910390fd5b600082840390508091505092915050565b600080828401905083811015612808576040517f08c379a000000000000000000000000000000000000000000000000000000000815260040180806020018281038252601b8152602001807f536166654d6174683a206164646974696f6e206f766572666c6f77000000000081525060200191505060405180910390fd5b8091505092915050565b6000808314156128255760009050612892565b600082840290508284828161283657fe5b041461288d576040517f08c379a00000000000000000000000000000000000000000000000000000000081526004018080602001828103825260218152602001806128996021913960400191505060405180910390fd5b809150505b9291505056fe536166654d6174683a206d756c7469706c69636174696f6e206f766572666c6f77596f75206d75737420707574207468652073616d65207374616b6520617320746865206f70706f6e656e744174206c65617374206f6e652068616e6420686173206e6f74206265656e2072657665616c656420796574a165627a7a72305820ae133c0a619cb4466b1911737336d8961a1b663784ce1f336704d0f52d0222ed0029",
  "source": "pragma solidity >= 0.5.0 <0.6.0;\n\n\nimport \"./Pausable.sol\";\nimport \"./Balances.sol\";\n\ncontract PublicRockPaperScissors is Pausable, Balances {\n\n  struct Game {\n    bytes32 firstPlayerHashedHand;\n    bytes32 secondPlayerHashedHand;\n    uint256 stake;\n    uint256 deadline;\n    address firstPlayer;\n    address secondPlayer;\n    Hand firstPlayerHand;\n    Hand secondPlayerHand;\n  }\n\n  event LogMatchCreated(\n    address indexed sender,\n    uint256 indexed gameId,\n    bytes32 firstPlayerHashedHand,\n    uint256 deadline,\n    uint256 stake\n  );\n\n  event LogMatchChallenged(\n    address indexed sender,\n    uint256 indexed gameId,\n    bytes32 secondPlayerHashedHand,\n    uint256 deadline,\n    uint256 stake\n  );\n\n  event LogHandRevealed(\n    address indexed sender,\n    uint256 indexed gameId,\n    Hand hand\n  );\n\n  event LogMatchResolved(\n    address indexed sender,\n    uint256 indexed gameId,\n    address indexed winner\n  );\n\n  event LogMatchCancelled(\n    address indexed sender,\n    uint256 indexed gameId\n  );\n\n  event LogPunishment(\n    address indexed sender,\n    uint256 indexed gameId,\n    address punished\n  );\n\n  enum Hand {NULL, ROCK, PAPER, SCISSORS}\n\n  uint256 constant public _oneDayInSeconds = 1 days;\n  uint256 public gameCount;\n\n  mapping(uint256 => Game) public games;\n\n  constructor(bool startPaused) Pausable(startPaused) public {}\n\n  /*\n    @dev: This function zeroes out game entries and reduces world state\n\n    @param gameId uint256 the pointer to the game entry to be deleted\n  */\n  function zeroOutGameEntry(uint256 gameId) internal {\n    games[gameId] = Game({\n      firstPlayerHashedHand: bytes32(0),\n      secondPlayerHashedHand: bytes32(0),\n      stake: 0,\n      deadline: 0,\n      firstPlayer: address(0),\n      secondPlayer: address(0),\n      firstPlayerHand: Hand.NULL,\n      secondPlayerHand: Hand.NULL\n    });\n  }\n\n  /*\n    @dev: This function lets the user pick a hand and hash it with a random secret, generated off-chain.\n\n    The contract does not keep track of used secrets, so be careful.\n\n    @param hand Hand the weapon choice\n    @param secret uint256 random secret to hide the hand\n  */\n  function hashHand(Hand hand, uint256 secret) public view returns (bytes32) {\n    require(hand != Hand.NULL, \"Null hand\");\n    return keccak256(abi.encodePacked(address(this), msg.sender, hand, secret));\n  }\n\n\n  /*\n    @dev: This function translates a hand to a number\n\n    @param hand Hand the weapon choice\n  */\n  function handEnumToNumber(Hand hand) public pure returns (uint8) {\n    require(hand != Hand.NULL);\n    if(hand == Hand.ROCK)\n      return 0;\n    else if(hand == Hand.PAPER)\n      return 1;\n    else\n      return 2;\n  }\n\n  /*\n    @dev: This function updates a game's state to reveal the calling player's hand.\n\n    @param gameId uint256 the id of the game\n    @param hand Hand the weapon choice\n    @param secret uint256 the random secret that was used to conceal the hand\n  */\n  function revealHand(uint256 gameId, Hand hand, uint256 secret) public returns (bool) {\n    require(hand != Hand.NULL, \"Cannot reveal a null hand\");\n    bytes32 secondPlayerHashedHand = games[gameId].secondPlayerHashedHand;\n    require(secondPlayerHashedHand != bytes32(0), \"Must wait for second player join\"); // Very weak protection. Even if it fails, a second player could potentially spot it.\n    bytes32 hashedHand = hashHand(hand, secret);\n\n    if(msg.sender == games[gameId].firstPlayer) {\n      require(hashedHand == games[gameId].firstPlayerHashedHand, \"Hand or secret are incorrect\"); // Correctly reveal secrets\n      games[gameId].firstPlayerHand = hand;\n    } else if(msg.sender == games[gameId].secondPlayer) {\n      require(hashedHand == secondPlayerHashedHand, \"Hand or secret are incorrect\"); // Correctly reveal secrets\n      games[gameId].secondPlayerHand = hand;\n    } else {\n      revert(\"You do not belong to this match\");\n    }\n\n    emit LogHandRevealed(msg.sender, gameId, hand);\n\n    return true;\n\n  }\n\n  /*\n    @dev: This function bootstraps a public game: any player can challenge the creator.\n\n    The game will be assigned an id (gameId) which is a autoincremented index (0, 1, 2...)\n\n    Warning: the contract does not check duplicated hashed hands.\n\n    @param firstPlayerHashedHand bytes32 the concealed hand choice, generated with hasHand()\n  */\n  function createMatch(bytes32 firstPlayerHashedHand) public payable mustBeRunning mustBeAlive returns (uint256) {\n    // Deadline and stake\n    uint256 deadline = now + _oneDayInSeconds; // The user can cancel the game after the deadline has passed, if uncontested\n    uint256 stake;\n\n    // Avoid odd values.\n    if(msg.value % 2 == 0) {\n      stake = msg.value;\n    } else {\n      stake = msg.value.sub(1);\n      increaseBalance(msg.sender, 1);\n    }\n\n    uint256 gameId = gameCount;\n\n    // Create game\n    games[gameId] = Game({\n      firstPlayerHashedHand: firstPlayerHashedHand,\n      secondPlayerHashedHand: bytes32(0),\n      stake: stake,\n      deadline: deadline,\n      firstPlayer: msg.sender,\n      secondPlayer: address(0),\n      firstPlayerHand: Hand.NULL,\n      secondPlayerHand: Hand.NULL\n    });\n\n    gameCount = gameId.add(1);\n\n    // Emit event\n    emit LogMatchCreated(msg.sender, gameId, firstPlayerHashedHand, deadline, stake);\n\n    return gameId;\n  }\n\n  /*\n    @dev: This function allows a player to accept a public challenge.\n\n    @param gameId uint256 the ID of the contested match\n    @param secondPlayerHashedHand bytes32 the concealed hand choice, generated with hasHand()\n  */\n  function challengeMatch(uint256 gameId, bytes32 secondPlayerHashedHand) public payable returns (bool) {\n    require(now < games[gameId].deadline, \"Deadline has passed\"); // Deadline has not passed && game exists && game has not been resolved\n    require(games[gameId].secondPlayer == address(0), \"This match is already contested\"); // Can only challenge uncontested games\n    require(msg.value == games[gameId].stake, \"You must put the same stake as the opponent\"); // Put the same stake as first player\n\n    uint256 deadline = now + _oneDayInSeconds; // Add additional time for the other player to notice.\n    uint256 stake = msg.value.mul(2); // if the player has put the same amount, then the total stake is doubled.\n\n    games[gameId].secondPlayer = msg.sender;\n    games[gameId].secondPlayerHashedHand = secondPlayerHashedHand;\n    games[gameId].stake = stake;\n    games[gameId].deadline = deadline;\n\n\n    emit LogMatchChallenged(msg.sender, gameId, secondPlayerHashedHand, deadline, stake);\n\n    return true;\n\n  }\n\n  /*\n    @dev: This function resolves a game, logging the winner and assigning the wages.\n\n    Anyone can resolve a game, so that if there is a community interested in keeping things running,\n    they can take charge of the fees.\n\n    @param gameId uint256 the ID of the contested match\n  */\n  function resolveMatch(uint256 gameId) public returns (bool) {\n    require(games[gameId].firstPlayerHand != Hand.NULL && games[gameId].secondPlayerHand != Hand.NULL, \"At least one hand has not been revealed yet\"); // Game must be resolved\n\n    address firstPlayer = games[gameId].firstPlayer;\n    address secondPlayer = games[gameId].secondPlayer;\n\n    uint256 firstPlayerHand = handEnumToNumber(games[gameId].firstPlayerHand);\n    uint256 secondPlayerHand = handEnumToNumber(games[gameId].secondPlayerHand);\n\n    address winner;\n\n    if(firstPlayerHand != secondPlayerHand) {\n      winner = firstPlayerHand == (secondPlayerHand + 1 % 3) ? firstPlayer : secondPlayer;\n    }\n\n    if(firstPlayerHand == secondPlayerHand) { // Tie\n      winner = address(0);\n    } else {\n      // Explanation:\n      // ROCK (0) => PAPER (1) => SCISSOR (2) => ROCK (0)\n      // If player 1 is to the right of player 2, he wins. Otherwise, he loses.\n      winner = firstPlayerHand == ((secondPlayerHand + 1) % 3) ? firstPlayer : secondPlayer;\n    }\n\n    uint256 stake = games[gameId].stake;\n\n    if(stake > 0)  { // If there was a pool, update the balances\n      if(winner == address(0)){\n        uint256 wage = stake.div(2);\n        increaseBalance(firstPlayer, wage);\n        increaseBalance(secondPlayer, wage);\n      } else {\n        increaseBalance(winner, stake);\n      }\n    }\n\n    zeroOutGameEntry(gameId);\n\n    emit LogMatchResolved(msg.sender, gameId, winner);\n\n    return true;\n  }\n\n  /*\n    @dev: This function cancels a game if the deadline has passed and it was not contested.\n    Returns the stake to the creator\n\n    @param gameId uint256 the ID of the contested match\n  */\n  function cancelMatch(uint256 gameId) public returns (bool) {\n    require(games[gameId].deadline < now); // Deadline has passed\n    require(games[gameId].secondPlayerHashedHand == bytes32(0)); // The second player must be absent\n\n    increaseBalance(games[gameId].firstPlayer, games[gameId].stake); // This will throw if the game had no stake.\n\n    zeroOutGameEntry(gameId);\n\n    emit LogMatchCancelled(msg.sender, gameId);\n\n    return true;\n  }\n\n  /*\n    @dev: This function punishes the players if they had comitted to a game but did not reveal in time.\n\n    Even if there was no stake, a punishment is logged as (very weak) reputation system.\n\n    @param gameId uint256 the ID of the contested match\n  */\n  function punish(uint256 gameId) public returns (bool) {\n    require(games[gameId].deadline < now); // deadline has passed\n    require(games[gameId].secondPlayerHashedHand != bytes32(0)); // The second player must have joined\n    uint256 stake = games[gameId].stake;\n\n    uint256 firstPlayerWage;\n    uint256 secondPlayerWage;\n\n    address firstPlayer = games[gameId].firstPlayer;\n    address secondPlayer = games[gameId].secondPlayer;\n\n    if(games[gameId].secondPlayerHand == Hand.NULL){\n      firstPlayerWage = stake.div(2);\n      emit LogPunishment(msg.sender, gameId, firstPlayer);\n    }else{\n      secondPlayerWage = stake.div(2);\n    }\n\n    if(games[gameId].firstPlayerHand == Hand.NULL){\n      secondPlayerWage = stake.div(2);\n      emit LogPunishment(msg.sender, gameId, secondPlayer);\n    }else{\n      firstPlayerWage = stake.div(2);\n    }\n\n    zeroOutGameEntry(gameId);\n\n    if(firstPlayerWage > 0)\n      increaseBalance(firstPlayer, firstPlayerWage);\n    if(secondPlayerWage > 0)\n      increaseBalance(secondPlayer, secondPlayerWage);\n\n    return true;\n  }\n\n  function() external {\n    revert();\n  }\n\n}\n",
  "sourcePath": "/home/mad/personal/b9lab/ethereum/module-9/contracts/PublicRockPaperScissors.sol",
  "compiler": {
    "name": "solc",
    "version": "0.5.7+commit.6da8b019.Emscripten.clang"
  },
  "schemaVersion": "3.0.10",
  "updatedAt": "2019-07-11T18:31:25.787Z",
  "devdoc": {
    "methods": {}
  },
  "userdoc": {
    "methods": {}
  }
}