{
  "contractName": "RockPaperScissors",
  "abi": [
    {
      "constant": false,
      "inputs": [],
      "name": "resume",
      "outputs": [],
      "payable": false,
      "stateMutability": "nonpayable",
      "type": "function"
    },
    {
      "constant": false,
      "inputs": [
        {
          "name": "newOwner",
          "type": "address"
        }
      ],
      "name": "setOwner",
      "outputs": [],
      "payable": false,
      "stateMutability": "nonpayable",
      "type": "function"
    },
    {
      "constant": true,
      "inputs": [
        {
          "name": "",
          "type": "address"
        }
      ],
      "name": "balances",
      "outputs": [
        {
          "name": "",
          "type": "uint256"
        }
      ],
      "payable": false,
      "stateMutability": "view",
      "type": "function"
    },
    {
      "constant": false,
      "inputs": [],
      "name": "withdraw",
      "outputs": [],
      "payable": false,
      "stateMutability": "nonpayable",
      "type": "function"
    },
    {
      "constant": false,
      "inputs": [],
      "name": "kill",
      "outputs": [],
      "payable": false,
      "stateMutability": "nonpayable",
      "type": "function"
    },
    {
      "constant": false,
      "inputs": [],
      "name": "pause",
      "outputs": [],
      "payable": false,
      "stateMutability": "nonpayable",
      "type": "function"
    },
    {
      "constant": true,
      "inputs": [],
      "name": "getOwner",
      "outputs": [
        {
          "name": "",
          "type": "address"
        }
      ],
      "payable": false,
      "stateMutability": "view",
      "type": "function"
    },
    {
      "constant": true,
      "inputs": [],
      "name": "isDead",
      "outputs": [
        {
          "name": "",
          "type": "bool"
        }
      ],
      "payable": false,
      "stateMutability": "view",
      "type": "function"
    },
    {
      "constant": true,
      "inputs": [],
      "name": "isPaused",
      "outputs": [
        {
          "name": "",
          "type": "bool"
        }
      ],
      "payable": false,
      "stateMutability": "view",
      "type": "function"
    },
    {
      "inputs": [
        {
          "name": "startPaused",
          "type": "bool"
        }
      ],
      "payable": false,
      "stateMutability": "nonpayable",
      "type": "constructor"
    },
    {
      "payable": false,
      "stateMutability": "nonpayable",
      "type": "fallback"
    },
    {
      "anonymous": false,
      "inputs": [
        {
          "indexed": true,
          "name": "sender",
          "type": "address"
        },
        {
          "indexed": true,
          "name": "gameId",
          "type": "bytes32"
        },
        {
          "indexed": false,
          "name": "stake",
          "type": "uint256"
        },
        {
          "indexed": false,
          "name": "deadline",
          "type": "uint256"
        }
      ],
      "name": "LogMatchCreated",
      "type": "event"
    },
    {
      "anonymous": false,
      "inputs": [
        {
          "indexed": true,
          "name": "sender",
          "type": "address"
        },
        {
          "indexed": true,
          "name": "gameId",
          "type": "bytes32"
        },
        {
          "indexed": false,
          "name": "stake",
          "type": "uint256"
        },
        {
          "indexed": false,
          "name": "deadline",
          "type": "uint256"
        }
      ],
      "name": "LogMatchAccepted",
      "type": "event"
    },
    {
      "anonymous": false,
      "inputs": [
        {
          "indexed": true,
          "name": "sender",
          "type": "address"
        },
        {
          "indexed": true,
          "name": "gameId",
          "type": "bytes32"
        },
        {
          "indexed": false,
          "name": "deadline",
          "type": "uint256"
        },
        {
          "indexed": false,
          "name": "hand",
          "type": "uint8"
        }
      ],
      "name": "LogHandShown",
      "type": "event"
    },
    {
      "anonymous": false,
      "inputs": [
        {
          "indexed": true,
          "name": "sender",
          "type": "address"
        },
        {
          "indexed": true,
          "name": "gameId",
          "type": "bytes32"
        },
        {
          "indexed": true,
          "name": "winner",
          "type": "address"
        },
        {
          "indexed": false,
          "name": "firstPlayerWage",
          "type": "uint256"
        },
        {
          "indexed": false,
          "name": "secondPlayerWage",
          "type": "uint256"
        }
      ],
      "name": "LogMatchResolved",
      "type": "event"
    },
    {
      "anonymous": false,
      "inputs": [
        {
          "indexed": true,
          "name": "sender",
          "type": "address"
        },
        {
          "indexed": true,
          "name": "gameId",
          "type": "bytes32"
        }
      ],
      "name": "LogPunishCalled",
      "type": "event"
    },
    {
      "anonymous": false,
      "inputs": [
        {
          "indexed": true,
          "name": "sender",
          "type": "address"
        },
        {
          "indexed": true,
          "name": "gameId",
          "type": "bytes32"
        }
      ],
      "name": "LogCancelCalled",
      "type": "event"
    },
    {
      "anonymous": false,
      "inputs": [
        {
          "indexed": true,
          "name": "sender",
          "type": "address"
        },
        {
          "indexed": true,
          "name": "to",
          "type": "address"
        },
        {
          "indexed": false,
          "name": "amount",
          "type": "uint256"
        }
      ],
      "name": "LogBalanceIncreased",
      "type": "event"
    },
    {
      "anonymous": false,
      "inputs": [
        {
          "indexed": true,
          "name": "sender",
          "type": "address"
        },
        {
          "indexed": false,
          "name": "amount",
          "type": "uint256"
        }
      ],
      "name": "LogBalanceWithdraw",
      "type": "event"
    },
    {
      "anonymous": false,
      "inputs": [
        {
          "indexed": true,
          "name": "sender",
          "type": "address"
        },
        {
          "indexed": false,
          "name": "state",
          "type": "bool"
        }
      ],
      "name": "LogPaused",
      "type": "event"
    },
    {
      "anonymous": false,
      "inputs": [
        {
          "indexed": true,
          "name": "sender",
          "type": "address"
        }
      ],
      "name": "LogKilled",
      "type": "event"
    },
    {
      "anonymous": false,
      "inputs": [
        {
          "indexed": true,
          "name": "sender",
          "type": "address"
        },
        {
          "indexed": true,
          "name": "newOwner",
          "type": "address"
        }
      ],
      "name": "LogOwnerChanged",
      "type": "event"
    },
    {
      "constant": false,
      "inputs": [
        {
          "name": "hashedHand",
          "type": "bytes32"
        },
        {
          "name": "timeoutInHours",
          "type": "uint88"
        }
      ],
      "name": "createMatch",
      "outputs": [
        {
          "name": "",
          "type": "bytes32"
        }
      ],
      "payable": true,
      "stateMutability": "payable",
      "type": "function"
    },
    {
      "constant": false,
      "inputs": [
        {
          "name": "firstPlayerHashedHand",
          "type": "bytes32"
        }
      ],
      "name": "acceptMatch",
      "outputs": [],
      "payable": true,
      "stateMutability": "payable",
      "type": "function"
    },
    {
      "constant": false,
      "inputs": [
        {
          "name": "firstPlayerHashedHand",
          "type": "bytes32"
        },
        {
          "name": "secondPlayerClearHand",
          "type": "uint8"
        }
      ],
      "name": "showHand",
      "outputs": [],
      "payable": false,
      "stateMutability": "nonpayable",
      "type": "function"
    },
    {
      "constant": false,
      "inputs": [
        {
          "name": "firstPlayerHand",
          "type": "uint8"
        },
        {
          "name": "secret",
          "type": "uint256"
        }
      ],
      "name": "resolveMatch",
      "outputs": [],
      "payable": false,
      "stateMutability": "nonpayable",
      "type": "function"
    },
    {
      "constant": false,
      "inputs": [
        {
          "name": "firstPlayerHashedHand",
          "type": "bytes32"
        }
      ],
      "name": "punish",
      "outputs": [],
      "payable": false,
      "stateMutability": "nonpayable",
      "type": "function"
    },
    {
      "constant": false,
      "inputs": [
        {
          "name": "firstPlayerHand",
          "type": "uint8"
        },
        {
          "name": "secret",
          "type": "uint256"
        }
      ],
      "name": "cancelGame",
      "outputs": [],
      "payable": false,
      "stateMutability": "nonpayable",
      "type": "function"
    },
    {
      "constant": true,
      "inputs": [
        {
          "name": "hand",
          "type": "uint8"
        },
        {
          "name": "secret",
          "type": "uint256"
        }
      ],
      "name": "hashHand",
      "outputs": [
        {
          "name": "",
          "type": "bytes32"
        }
      ],
      "payable": false,
      "stateMutability": "view",
      "type": "function"
    }
  ],
  "bytecode": "0x608060405234801561001057600080fd5b506040516020806128308339810180604052602081101561003057600080fd5b810190808051906020019092919050505080336000806101000a81548173ffffffffffffffffffffffffffffffffffffffff021916908373ffffffffffffffffffffffffffffffffffffffff16021790555080600060146101000a81548160ff0219169083151502179055505050612783806100ad6000396000f3fe6080604052600436106100f35760003560e01c80636c9382d91161008a57806399baa10c1161005957806399baa10c146103af578063b187bd26146103de578063bd8fbe211461040d578063dc563c5c14610469576100f3565b80636c9382d9146102be5780637703f3f2146102f95780638456cb5914610341578063893d20e814610358576100f3565b806327e235e3116100c657806327e235e3146101fd5780633ccfd60b1461026257806341c0e1b514610279578063563bc47b14610290576100f3565b8063046f7da2146101055780630a5a68d81461011c57806313af40351461016457806316cd81b4146101b5575b3480156100ff57600080fd5b50600080fd5b34801561011157600080fd5b5061011a6104c2565b005b34801561012857600080fd5b506101626004803603604081101561013f57600080fd5b81019080803560ff1690602001909291908035906020019092919050505061068f565b005b34801561017057600080fd5b506101b36004803603602081101561018757600080fd5b81019080803573ffffffffffffffffffffffffffffffffffffffff1690602001909291905050506108d0565b005b3480156101c157600080fd5b506101fb600480360360408110156101d857600080fd5b81019080803560ff16906020019092919080359060200190929190505050610ad2565b005b34801561020957600080fd5b5061024c6004803603602081101561022057600080fd5b81019080803573ffffffffffffffffffffffffffffffffffffffff169060200190929190505050610dce565b6040518082815260200191505060405180910390f35b34801561026e57600080fd5b50610277610de6565b005b34801561028557600080fd5b5061028e610f14565b005b6102bc600480360360208110156102a657600080fd5b81019080803590602001909291905050506110d2565b005b3480156102ca57600080fd5b506102f7600480360360208110156102e157600080fd5b8101908080359060200190929190505050611483565b005b34801561030557600080fd5b5061033f6004803603604081101561031c57600080fd5b8101908080359060200190929190803560ff1690602001909291905050506116db565b005b34801561034d57600080fd5b50610356611a9d565b005b34801561036457600080fd5b5061036d611c6c565b604051808273ffffffffffffffffffffffffffffffffffffffff1673ffffffffffffffffffffffffffffffffffffffff16815260200191505060405180910390f35b3480156103bb57600080fd5b506103c4611c95565b604051808215151515815260200191505060405180910390f35b3480156103ea57600080fd5b506103f3611cab565b604051808215151515815260200191505060405180910390f35b34801561041957600080fd5b506104536004803603604081101561043057600080fd5b81019080803560ff16906020019092919080359060200190929190505050611cc1565b6040518082815260200191505060405180910390f35b6104ac6004803603604081101561047f57600080fd5b810190808035906020019092919080356affffffffffffffffffffff169060200190929190505050611e7c565b6040518082815260200191505060405180910390f35b600060159054906101000a900460ff16156104dc57600080fd5b6000809054906101000a900473ffffffffffffffffffffffffffffffffffffffff1673ffffffffffffffffffffffffffffffffffffffff163373ffffffffffffffffffffffffffffffffffffffff161461059e576040517f08c379a000000000000000000000000000000000000000000000000000000000815260040180806020018281038252601f8152602001807f43616e206f6e6c792062652063616c6c656420627920746865206f776e65720081525060200191505060405180910390fd5b600060149054906101000a900460ff16610620576040517f08c379a000000000000000000000000000000000000000000000000000000000815260040180806020018281038252601b8152602001807f54686520636f6e7472616374206d75737420626520706175736564000000000081525060200191505060405180910390fd5b60008060146101000a81548160ff0219169083151502179055503373ffffffffffffffffffffffffffffffffffffffff167f9885b484a3068de5c38fb9073ed8489371efc9514b9a174a9cd1df5326d2e4546000604051808215151515815260200191505060405180910390a2565b600061069b8383611cc1565b90506000600260008381526020019081526020016000206001015490506000811161072e576040517f08c379a00000000000000000000000000000000000000000000000000000000081526004018080602001828103825260088152602001807f4e6f207374616b6500000000000000000000000000000000000000000000000081525060200191505060405180910390fd5b426002600084815260200190815260200160002060020154106107b9576040517f08c379a00000000000000000000000000000000000000000000000000000000081526004018080602001828103825260178152602001807f446561646c696e6520686173206e6f742070617373656400000000000000000081525060200191505060405180910390fd5b600060038111156107c657fe5b6002600084815260200190815260200160002060000160009054906101000a900460ff1660038111156107f557fe5b1415610869576040517f08c379a00000000000000000000000000000000000000000000000000000000081526004018080602001828103825260198152602001807f43616e6e6f742063616e63656c2c2067616d65206973206f6e0000000000000081525060200191505060405180910390fd5b61087282612264565b813373ffffffffffffffffffffffffffffffffffffffff167fe0538c81f11de7da12f713b1b2db71af87bb5e6b028cba17eb1a07637bcbd25960405160405180910390a360008111156108ca576108c93382612370565b5b50505050565b6000809054906101000a900473ffffffffffffffffffffffffffffffffffffffff1673ffffffffffffffffffffffffffffffffffffffff163373ffffffffffffffffffffffffffffffffffffffff1614610992576040517f08c379a000000000000000000000000000000000000000000000000000000000815260040180806020018281038252601f8152602001807f43616e206f6e6c792062652063616c6c656420627920746865206f776e65720081525060200191505060405180910390fd5b600073ffffffffffffffffffffffffffffffffffffffff168173ffffffffffffffffffffffffffffffffffffffff161415610a35576040517f08c379a00000000000000000000000000000000000000000000000000000000081526004018080602001828103825260118152602001807f6e65774f776e657220697320656d70747900000000000000000000000000000081525060200191505060405180910390fd5b806000806101000a81548173ffffffffffffffffffffffffffffffffffffffff021916908373ffffffffffffffffffffffffffffffffffffffff1602179055508073ffffffffffffffffffffffffffffffffffffffff163373ffffffffffffffffffffffffffffffffffffffff167ffcf23a92150d56e85e3a3d33b357493246e55783095eb6a733eb8439ffc752c860405160405180910390a350565b6000610ade8383611cc1565b905060006002600083815260200190815260200160002060000160009054906101000a900460ff16905060006003811115610b1557fe5b816003811115610b2157fe5b1415610b78576040517f08c379a00000000000000000000000000000000000000000000000000000000081526004018080602001828103825260228152602001806126f46022913960400191505060405180910390fd5b600060026000848152602001908152602001600020600201549050804210610c08576040517f08c379a000000000000000000000000000000000000000000000000000000000815260040180806020018281038252600f8152602001807f446561646c696e6520706173736564000000000000000000000000000000000081525060200191505060405180910390fd5b600060026000858152602001908152602001600020600001600c9054906101000a900473ffffffffffffffffffffffffffffffffffffffff1690506000600260008681526020019081526020016000206001015490506000806000866003811115610c6f57fe5b8a6003811115610c7b57fe5b1415610c9c57610c9560028561247b90919063ffffffff16565b9250610d18565b60036001886003811115610cac57fe5b0160ff1681610cb757fe5b0660ff168a6003811115610cc757fe5b60ff1614610cd55784610cd7565b335b90508073ffffffffffffffffffffffffffffffffffffffff163373ffffffffffffffffffffffffffffffffffffffff1614610d13576000610d15565b835b92505b610d2b838561250a90919063ffffffff16565b9150610d3688612264565b8073ffffffffffffffffffffffffffffffffffffffff16883373ffffffffffffffffffffffffffffffffffffffff167f3ee2aa7957f8a7603edc63df917b6a9238e9bc8d7f3104116438a721163c10028686604051808381526020018281526020019250505060405180910390a46000841115610dc257610db73384612370565b610dc18583612370565b5b50505050505050505050565b60016020528060005260406000206000915090505481565b6000600160003373ffffffffffffffffffffffffffffffffffffffff1673ffffffffffffffffffffffffffffffffffffffff16815260200190815260200160002054905060008111610e3757600080fd5b6000600160003373ffffffffffffffffffffffffffffffffffffffff1673ffffffffffffffffffffffffffffffffffffffff168152602001908152602001600020819055503373ffffffffffffffffffffffffffffffffffffffff167f5e26e1a51df37b08449f88d0f25b11970834ee857ac90f4e445d36d5bcdc9157826040518082815260200191505060405180910390a23373ffffffffffffffffffffffffffffffffffffffff166108fc829081150290604051600060405180830381858888f19350505050158015610f10573d6000803e3d6000fd5b5050565b600060159054906101000a900460ff1615610f2e57600080fd5b6000809054906101000a900473ffffffffffffffffffffffffffffffffffffffff1673ffffffffffffffffffffffffffffffffffffffff163373ffffffffffffffffffffffffffffffffffffffff1614610ff0576040517f08c379a000000000000000000000000000000000000000000000000000000000815260040180806020018281038252601f8152602001807f43616e206f6e6c792062652063616c6c656420627920746865206f776e65720081525060200191505060405180910390fd5b600060149054906101000a900460ff16611072576040517f08c379a000000000000000000000000000000000000000000000000000000000815260040180806020018281038252601b8152602001807f54686520636f6e7472616374206d75737420626520706175736564000000000081525060200191505060405180910390fd5b6001600060156101000a81548160ff0219169083151502179055503373ffffffffffffffffffffffffffffffffffffffff167fdd1d1672156846fdc9d6e65d5701535f177a41834051f5f7328be7f4252bcb3160405160405180910390a2565b6000600260008381526020019081526020016000206002015490506000811415611164576040517f08c379a00000000000000000000000000000000000000000000000000000000081526004018080602001828103825260138152602001807f47616d6520646f6573206e6f742065786973740000000000000000000000000081525060200191505060405180910390fd5b8042106111d9576040517f08c379a000000000000000000000000000000000000000000000000000000000815260040180806020018281038252600f8152602001807f446561646c696e6520706173736564000000000000000000000000000000000081525060200191505060405180910390fd5b600060026000848152602001908152602001600020600101549050348114611269576040517f08c379a000000000000000000000000000000000000000000000000000000000815260040180806020018281038252600d8152602001807f496e76616c6964207374616b650000000000000000000000000000000000000081525060200191505060405180910390fd5b600073ffffffffffffffffffffffffffffffffffffffff1660026000858152602001908152602001600020600001600c9054906101000a900473ffffffffffffffffffffffffffffffffffffffff1673ffffffffffffffffffffffffffffffffffffffff1614611324576040517f08c379a00000000000000000000000000000000000000000000000000000000081526004018080602001828103825260218152602001806127376021913960400191505060405180910390fd5b611385611376610e106002600087815260200190815260200160002060000160019054906101000a90046affffffffffffffffffffff166affffffffffffffffffffff1661259390919063ffffffff16565b4261261990919063ffffffff16565b915061139a348261261990919063ffffffff16565b90503360026000858152602001908152602001600020600001600c6101000a81548173ffffffffffffffffffffffffffffffffffffffff021916908373ffffffffffffffffffffffffffffffffffffffff160217905550816002600085815260200190815260200160002060020181905550806002600085815260200190815260200160002060010181905550823373ffffffffffffffffffffffffffffffffffffffff167ffd4e244c30978b2b53f2eaa2518429f95400be29dd0d0f56d89ce9a86c60b9c28385604051808381526020018281526020019250505060405180910390a3505050565b4260026000838152602001908152602001600020600201541061150e576040517f08c379a00000000000000000000000000000000000000000000000000000000081526004018080602001828103825260178152602001807f446561646c696e6520686173206e6f742070617373656400000000000000000081525060200191505060405180910390fd5b3373ffffffffffffffffffffffffffffffffffffffff1660026000838152602001908152602001600020600001600c9054906101000a900473ffffffffffffffffffffffffffffffffffffffff1673ffffffffffffffffffffffffffffffffffffffff16146115c8576040517f08c379a00000000000000000000000000000000000000000000000000000000081526004018080602001828103825260298152602001806126a26029913960400191505060405180910390fd5b600060038111156115d557fe5b6002600083815260200190815260200160002060000160009054906101000a900460ff16600381111561160457fe5b141561165b576040517f08c379a00000000000000000000000000000000000000000000000000000000081526004018080602001828103825260298152602001806126cb6029913960400191505060405180910390fd5b60006002600083815260200190815260200160002060010154905061167f82612264565b813373ffffffffffffffffffffffffffffffffffffffff167ff79f7e0fb85fa016cb8cdef27e5b662934a15c1ea9e819c75af680acdab7abd960405160405180910390a360008111156116d7576116d63382612370565b5b5050565b600060038111156116e857fe5b8160038111156116f457fe5b1415611768576040517f08c379a000000000000000000000000000000000000000000000000000000000815260040180806020018281038252600c8152602001807f496e76616c69642068616e64000000000000000000000000000000000000000081525060200191505060405180910390fd5b3373ffffffffffffffffffffffffffffffffffffffff1660026000848152602001908152602001600020600001600c9054906101000a900473ffffffffffffffffffffffffffffffffffffffff1673ffffffffffffffffffffffffffffffffffffffff161461183f576040517f08c379a00000000000000000000000000000000000000000000000000000000081526004018080602001828103825260168152602001807f496e76616c696420706c6179657220616464726573730000000000000000000081525060200191505060405180910390fd5b6000600381111561184c57fe5b6002600084815260200190815260200160002060000160009054906101000a900460ff16600381111561187b57fe5b146118ee576040517f08c379a00000000000000000000000000000000000000000000000000000000081526004018080602001828103825260168152602001807f43616e6e6f74207069636b2068616e642074776963650000000000000000000081525060200191505060405180910390fd5b60006002600084815260200190815260200160002060020154905080421061197e576040517f08c379a000000000000000000000000000000000000000000000000000000000815260040180806020018281038252600f8152602001807f446561646c696e6520706173736564000000000000000000000000000000000081525060200191505060405180910390fd5b6119df6119d0610e106002600087815260200190815260200160002060000160019054906101000a90046affffffffffffffffffffff166affffffffffffffffffffff1661259390919063ffffffff16565b4261261990919063ffffffff16565b9050816002600085815260200190815260200160002060000160006101000a81548160ff02191690836003811115611a1357fe5b0217905550806002600085815260200190815260200160002060020181905550823373ffffffffffffffffffffffffffffffffffffffff167f53b3235c1a7382d3d18ff699dc34c9edd105b35a1ab5e4948bfa7c50dea85edc838560405180838152602001826003811115611a8457fe5b60ff1681526020019250505060405180910390a3505050565b600060159054906101000a900460ff1615611ab757600080fd5b6000809054906101000a900473ffffffffffffffffffffffffffffffffffffffff1673ffffffffffffffffffffffffffffffffffffffff163373ffffffffffffffffffffffffffffffffffffffff1614611b79576040517f08c379a000000000000000000000000000000000000000000000000000000000815260040180806020018281038252601f8152602001807f43616e206f6e6c792062652063616c6c656420627920746865206f776e65720081525060200191505060405180910390fd5b600060149054906101000a900460ff1615611bfc576040517f08c379a00000000000000000000000000000000000000000000000000000000081526004018080602001828103825260168152602001807f54686520636f6e7472616374206973207061757365640000000000000000000081525060200191505060405180910390fd5b6001600060146101000a81548160ff0219169083151502179055503373ffffffffffffffffffffffffffffffffffffffff167f9885b484a3068de5c38fb9073ed8489371efc9514b9a174a9cd1df5326d2e4546001604051808215151515815260200191505060405180910390a2565b60008060009054906101000a900473ffffffffffffffffffffffffffffffffffffffff16905090565b60008060159054906101000a900460ff16905090565b60008060149054906101000a900460ff16905090565b6000806003811115611ccf57fe5b836003811115611cdb57fe5b1415611d4f576040517f08c379a00000000000000000000000000000000000000000000000000000000081526004018080602001828103825260098152602001807f4e756c6c2068616e64000000000000000000000000000000000000000000000081525060200191505060405180910390fd5b6000821415611dc6576040517f08c379a000000000000000000000000000000000000000000000000000000000815260040180806020018281038252600b8152602001807f4e756c6c2073656372657400000000000000000000000000000000000000000081525060200191505060405180910390fd5b30338484604051602001808573ffffffffffffffffffffffffffffffffffffffff1673ffffffffffffffffffffffffffffffffffffffff1660601b81526014018473ffffffffffffffffffffffffffffffffffffffff1673ffffffffffffffffffffffffffffffffffffffff1660601b8152601401836003811115611e4757fe5b60ff1660f81b815260010182815260200194505050505060405160208183030381529060405280519060200120905092915050565b60008060149054906101000a900460ff1615611f00576040517f08c379a00000000000000000000000000000000000000000000000000000000081526004018080602001828103825260168152602001807f54686520636f6e7472616374206973207061757365640000000000000000000081525060200191505060405180910390fd5b600060159054906101000a900460ff1615611f1a57600080fd5b6000801b831415611f93576040517f08c379a00000000000000000000000000000000000000000000000000000000081526004018080602001828103825260138152602001807f496e76616c6964206861736865642068616e640000000000000000000000000081525060200191505060405180910390fd5b6000826affffffffffffffffffffff1611612016576040517f08c379a000000000000000000000000000000000000000000000000000000000815260040180806020018281038252601f8152602001807f54696d656f7574206d757374206265206174206c65617374203120686f75720081525060200191505060405180910390fd5b600061204c61203d610e10856affffffffffffffffffffff1661259390919063ffffffff16565b4261261990919063ffffffff16565b905060006002600086815260200190815260200160002060020154146120da576040517f08c379a000000000000000000000000000000000000000000000000000000000815260040180806020018281038252600d8152602001807f50617373776f726420757365640000000000000000000000000000000000000081525060200191505060405180910390fd5b60003490506040518060a00160405280600060038111156120f757fe5b8152602001856affffffffffffffffffffff168152602001600073ffffffffffffffffffffffffffffffffffffffff168152602001828152602001838152506002600087815260200190815260200160002060008201518160000160006101000a81548160ff0219169083600381111561216d57fe5b021790555060208201518160000160016101000a8154816affffffffffffffffffffff02191690836affffffffffffffffffffff160217905550604082015181600001600c6101000a81548173ffffffffffffffffffffffffffffffffffffffff021916908373ffffffffffffffffffffffffffffffffffffffff1602179055506060820151816001015560808201518160020155905050843373ffffffffffffffffffffffffffffffffffffffff167f33b0093720be4add387c61126437bb10a9bbe628216ce961192a87e5006f1c178385604051808381526020018281526020019250505060405180910390a3505092915050565b60006002600083815260200190815260200160002060000160006101000a81548160ff0219169083600381111561229757fe5b0217905550600060026000838152602001908152602001600020600001600c6101000a81548173ffffffffffffffffffffffffffffffffffffffff021916908373ffffffffffffffffffffffffffffffffffffffff1602179055506000600260008381526020019081526020016000206001018190555060006002600083815260200190815260200160002060000160016101000a8154816affffffffffffffffffffff02191690836affffffffffffffffffffff16021790555042600260008381526020019081526020016000206002018190555050565b6000811161237d57600080fd5b6123cf81600160008573ffffffffffffffffffffffffffffffffffffffff1673ffffffffffffffffffffffffffffffffffffffff1681526020019081526020016000205461261990919063ffffffff16565b600160008473ffffffffffffffffffffffffffffffffffffffff1673ffffffffffffffffffffffffffffffffffffffff168152602001908152602001600020819055508173ffffffffffffffffffffffffffffffffffffffff163373ffffffffffffffffffffffffffffffffffffffff167f8d6dc51e8945c5e6a4ddb872612ec2b1f5e375a97daebdbb6a03a64e7c659209836040518082815260200191505060405180910390a35050565b60008082116124f2576040517f08c379a000000000000000000000000000000000000000000000000000000000815260040180806020018281038252601a8152602001807f536166654d6174683a206469766973696f6e206279207a65726f00000000000081525060200191505060405180910390fd5b60008284816124fd57fe5b0490508091505092915050565b600082821115612582576040517f08c379a000000000000000000000000000000000000000000000000000000000815260040180806020018281038252601e8152602001807f536166654d6174683a207375627472616374696f6e206f766572666c6f77000081525060200191505060405180910390fd5b600082840390508091505092915050565b6000808314156125a65760009050612613565b60008284029050828482816125b757fe5b041461260e576040517f08c379a00000000000000000000000000000000000000000000000000000000081526004018080602001828103825260218152602001806127166021913960400191505060405180910390fd5b809150505b92915050565b600080828401905083811015612697576040517f08c379a000000000000000000000000000000000000000000000000000000000815260040180806020018281038252601b8152602001807f536166654d6174683a206164646974696f6e206f766572666c6f77000000000081525060200191505060405180910390fd5b809150509291505056fe4f6e6c79207365636f6e6420706c617965722063616e2063616c6c20746869732066756e6374696f6e596f75206861766520746f2073686f7720796f75722068616e64206265666f72652063616c6c696e67506c617965722074776f20686173206e6f74206d6164652061206d6f766520796574536166654d6174683a206d756c7469706c69636174696f6e206f766572666c6f774d6174636820636f6e74657374656420627920616e6f7468657220706c61796572a165627a7a723058207aeb79ec44f09e98716c2680825bcba83e1dcd3586a162dbd169e99e9000382d0029",
  "source": "pragma solidity >= 0.5.0 <0.6.0;\n\n\nimport \"./Pausable.sol\";\nimport \"./Balances.sol\";\n\ncontract RockPaperScissors is Pausable, Balances {\n\n  enum Hand {NULL, ROCK, PAPER, SCISSORS}\n\n  struct Game {\n    Hand secondPlayerHand;\n    uint88 timeout; // We make sure that secondPlayerHand, timeout and address are tightly packed, making it 32 bytes\n    address secondPlayer;\n    uint256 stake;\n    uint256 deadline;\n  }\n\n  // The bytes32 key is a hash comprising the creator's hand for the game and a secret.\n  // This way we save storage space, as we do not need to store the secret hand in Game's struct.\n  mapping(bytes32 => Game) games;\n\n  event LogMatchCreated(\n    address indexed sender,\n    bytes32 indexed gameId,\n    uint256 stake,\n    uint256 deadline\n  );\n\n  event LogMatchAccepted(\n    address indexed sender,\n    bytes32 indexed gameId,\n    uint256 stake,\n    uint256 deadline\n  );\n\n  event LogHandShown(\n    address indexed sender,\n    bytes32 indexed gameId,\n    uint256 deadline,\n    Hand hand\n  );\n\n  event LogMatchResolved(\n    address indexed sender,\n    bytes32 indexed gameId,\n    address indexed winner,\n    uint256 firstPlayerWage,\n    uint256 secondPlayerWage\n  );\n\n  event LogPunishCalled(\n    address indexed sender,\n    bytes32 indexed gameId\n  );\n\n  event LogCancelCalled(\n    address indexed sender,\n    bytes32 indexed gameId\n  );\n\n  constructor(bool startPaused) Pausable(startPaused) public {}\n\n  /*\n    @dev: This function is the default callback for the contract.\n\n    We do not want to accept any ether if not by the appropiate methods, so we revert by default\n  */\n  function() external {\n    revert();\n  }\n\n  /*\n    @dev: This function lets a player create a match. He / she must specify the challenged address\n    and a hidden hand that will act as game ID (key to the mapping)\n\n    @param secondPlayer address is the challenged player's address\n    @param bytes32 hashedHand is a hash obtained by calling hashHand() that will act as key.\n\n  */\n  function createMatch(bytes32 hashedHand, uint88 timeoutInHours) public payable mustBeRunning mustBeAlive returns (bytes32) {\n    require(hashedHand != bytes32(0), \"Invalid hashed hand\");\n    require(timeoutInHours > 0, \"Timeout must be at least 1 hour\");\n    uint256 deadline = now.add(uint256(timeoutInHours).mul(1 hours));\n    require(games[hashedHand].deadline == 0, \"Password used\");\n\n    uint256 stake = msg.value;\n\n    games[hashedHand] = Game({\n      secondPlayerHand: Hand.NULL,\n      timeout: timeoutInHours,\n      secondPlayer: address(0),\n      deadline: deadline,\n      stake: stake\n    });\n\n    emit LogMatchCreated(msg.sender, hashedHand, stake, deadline);\n  }\n\n  /*\n    @dev: This function lets a player join the match\n\n    @param firstPlayerHashedHand bytes32 is the game key\n  */\n  function acceptMatch(bytes32 firstPlayerHashedHand) public payable {\n    uint256 deadline = games[firstPlayerHashedHand].deadline;\n    require(deadline != 0, \"Game does not exist\");\n    require(now < deadline, \"Deadline passed\");\n    uint256 stake = games[firstPlayerHashedHand].stake;\n    require(stake == msg.value, \"Invalid stake\");\n    require(games[firstPlayerHashedHand].secondPlayer == address(0), \"Match contested by another player\");\n\n    deadline = now.add(uint256(games[firstPlayerHashedHand].timeout).mul(1 hours));\n    stake = stake.add(msg.value);\n\n    games[firstPlayerHashedHand].secondPlayer = msg.sender;\n    games[firstPlayerHashedHand].deadline = deadline;\n    games[firstPlayerHashedHand].stake = stake;\n\n    emit LogMatchAccepted(msg.sender, firstPlayerHashedHand, stake, deadline);\n\n  }\n\n  /*\n    @dev: This function is the natural extension of acceptMatch(). In this function the second player\n      reveals the hand he picked.\n\n    @param firstPlayerHashedHand bytes32 is the game key\n  */\n  function showHand(bytes32 firstPlayerHashedHand, Hand secondPlayerClearHand) public {\n    require(secondPlayerClearHand != Hand.NULL, \"Invalid hand\");\n    require(games[firstPlayerHashedHand].secondPlayer == msg.sender, \"Invalid player address\");\n    require(games[firstPlayerHashedHand].secondPlayerHand == Hand.NULL, \"Cannot pick hand twice\");\n    uint256 deadline = games[firstPlayerHashedHand].deadline;\n    require(now < deadline, \"Deadline passed\");\n\n    deadline = now.add(uint256(games[firstPlayerHashedHand].timeout).mul(1 hours));\n\n    games[firstPlayerHashedHand].secondPlayerHand = secondPlayerClearHand;\n    games[firstPlayerHashedHand].deadline = deadline;\n\n    emit LogHandShown(msg.sender, firstPlayerHashedHand, deadline, secondPlayerClearHand);\n\n  }\n\n  /*\n    @dev: This function resolves a game, must be called by the game creator.\n\n    @param hand Hand the weapon choice\n    @param secret uint256 the secret used to hash the hand\n  */\n  function resolveMatch(Hand firstPlayerHand, uint256 secret) public {\n    bytes32 hashedHand = hashHand(firstPlayerHand, secret);\n\n    Hand secondPlayerHand = games[hashedHand].secondPlayerHand;\n    require(secondPlayerHand != Hand.NULL, \"Player two has not made a move yet\");\n\n    uint256 deadline = games[hashedHand].deadline;\n    require(now < deadline, \"Deadline passed\");\n\n    address secondPlayer = games[hashedHand].secondPlayer;\n    uint256 stake = games[hashedHand].stake;\n    uint256 firstPlayerWage;\n    uint256 secondPlayerWage;\n    address winner;\n\n    if(firstPlayerHand == secondPlayerHand) { // Tie, we divide stake into two\n      firstPlayerWage = stake.div(2);\n    } else {\n      // Explanation:\n      // ROCK (0) => PAPER (1) => SCISSOR (2) => ROCK (0)\n      // If player 1 is to the right of player 2, he wins. Otherwise, he loses.\n      winner = uint8(firstPlayerHand) == ((uint8(secondPlayerHand) + 1) % 3) ? msg.sender : secondPlayer;\n      firstPlayerWage = msg.sender == winner ? stake : 0;\n    }\n\n    secondPlayerWage = stake.sub(firstPlayerWage); // Player 2 will get the remaining stake\n\n    zeroOutGameEntry(hashedHand);\n\n    emit LogMatchResolved(\n      msg.sender,\n      hashedHand,\n      winner, // if 0, tie\n      firstPlayerWage,\n      secondPlayerWage\n    );\n\n    if(stake > 0)  { // If there was a pool, update the balances\n      increaseBalance(msg.sender, firstPlayerWage);\n      increaseBalance(secondPlayer, secondPlayerWage);\n    }\n  }\n\n  /*\n    @dev: This function lets the second player of a game punish the creator for not revealing\n    his / her hand.\n\n    @param firstPlayerHashedHand the key to the game's mapping\n  */\n  function punish(bytes32 firstPlayerHashedHand) public {\n    require(games[firstPlayerHashedHand].deadline < now, \"Deadline has not passed\");\n    require(games[firstPlayerHashedHand].secondPlayer == msg.sender, \"Only second player can call this function\");\n    require(games[firstPlayerHashedHand].secondPlayerHand != Hand.NULL, \"You have to show your hand before calling\");\n\n    uint256 stake = games[firstPlayerHashedHand].stake;\n\n    zeroOutGameEntry(firstPlayerHashedHand);\n\n    emit LogPunishCalled(msg.sender, firstPlayerHashedHand);\n\n    if(stake > 0)\n      increaseBalance(msg.sender, stake);\n  }\n\n  /*\n    @dev: Lets the game's creator recover the stake after the timeout, and punish the second player if no hand\n        was comitted\n\n    @param hand Hand the weapon choice\n    @param secret uint256 the secret used to hash the hand\n  */\n  function cancelGame(Hand firstPlayerHand, uint256 secret) public {\n    bytes32 hashedHand = hashHand(firstPlayerHand, secret);\n\n    uint256 stake = games[hashedHand].stake;\n    // Does not make sense to cancel a game that has not stake. This allows us to filter\n    // both non-existant games and finished games.\n    require(stake > 0, \"No stake\");\n\n    require(games[hashedHand].deadline < now, \"Deadline has not passed\");\n    require(games[hashedHand].secondPlayerHand != Hand.NULL, \"Cannot cancel, game is on\");\n\n    zeroOutGameEntry(hashedHand);\n\n    emit LogCancelCalled(msg.sender, hashedHand);\n\n    if(stake > 0)\n      increaseBalance(msg.sender, stake);\n  }\n\n  /*\n    @dev: This function lets the user pick a hand and hash it with a random secret, generated off-chain.\n\n    This also serves as key for the games mapping.\n\n    We could optimize the storage costs by adding the challenged player to the hash,\n    but this would mean that the hash ought to be shared out of band.\n\n    @param hand Hand the weapon choice\n    @param secret uint256 random secret to hide the hand\n  */\n  function hashHand(Hand hand, uint256 secret) public view returns (bytes32) {\n    require(hand != Hand.NULL, \"Null hand\");\n    require(secret != 0, \"Null secret\");\n    return keccak256(abi.encodePacked(address(this), msg.sender, hand, secret));\n  }\n\n  /*\n    @dev: This function zeroes out game entries and reduces world state\n\n    @param gameId bytes32 the key to the mapping\n  */\n  function zeroOutGameEntry(bytes32 gameId) internal {\n    games[gameId].secondPlayerHand = Hand.NULL;\n    games[gameId].secondPlayer = address(0);\n    games[gameId].stake = 0;\n    games[gameId].timeout = 0;\n\n    // Added this to avoid a situation in which after a game has been resolved and zeroed-out,\n    // a player could call acceptMatch() again. It would not have monetary impact as the stakes would\n    // have been distributed, but it could pollute the events log.\n    games[gameId].deadline = now;\n  }\n\n}\n",
  "sourcePath": "/home/mad/personal/b9lab/ethereum/module-9/contracts/RockPaperScissors.sol",
  "compiler": {
    "name": "solc",
    "version": "0.5.7+commit.6da8b019.Emscripten.clang"
  },
  "schemaVersion": "3.0.10",
  "updatedAt": "2019-07-15T17:44:41.295Z",
  "devdoc": {
    "methods": {}
  },
  "userdoc": {
    "methods": {}
  }
}