{
  "contractName": "RockPaperScissors",
  "abi": [
    {
      "constant": false,
      "inputs": [],
      "name": "resume",
      "outputs": [],
      "payable": false,
      "stateMutability": "nonpayable",
      "type": "function"
    },
    {
      "constant": false,
      "inputs": [
        {
          "name": "newOwner",
          "type": "address"
        }
      ],
      "name": "setOwner",
      "outputs": [],
      "payable": false,
      "stateMutability": "nonpayable",
      "type": "function"
    },
    {
      "constant": true,
      "inputs": [
        {
          "name": "",
          "type": "address"
        }
      ],
      "name": "balances",
      "outputs": [
        {
          "name": "",
          "type": "uint256"
        }
      ],
      "payable": false,
      "stateMutability": "view",
      "type": "function"
    },
    {
      "constant": false,
      "inputs": [],
      "name": "withdraw",
      "outputs": [],
      "payable": false,
      "stateMutability": "nonpayable",
      "type": "function"
    },
    {
      "constant": false,
      "inputs": [],
      "name": "kill",
      "outputs": [],
      "payable": false,
      "stateMutability": "nonpayable",
      "type": "function"
    },
    {
      "constant": false,
      "inputs": [],
      "name": "pause",
      "outputs": [],
      "payable": false,
      "stateMutability": "nonpayable",
      "type": "function"
    },
    {
      "constant": true,
      "inputs": [],
      "name": "getOwner",
      "outputs": [
        {
          "name": "",
          "type": "address"
        }
      ],
      "payable": false,
      "stateMutability": "view",
      "type": "function"
    },
    {
      "constant": true,
      "inputs": [],
      "name": "isDead",
      "outputs": [
        {
          "name": "",
          "type": "bool"
        }
      ],
      "payable": false,
      "stateMutability": "view",
      "type": "function"
    },
    {
      "constant": true,
      "inputs": [],
      "name": "isPaused",
      "outputs": [
        {
          "name": "",
          "type": "bool"
        }
      ],
      "payable": false,
      "stateMutability": "view",
      "type": "function"
    },
    {
      "inputs": [
        {
          "name": "startPaused",
          "type": "bool"
        }
      ],
      "payable": false,
      "stateMutability": "nonpayable",
      "type": "constructor"
    },
    {
      "payable": false,
      "stateMutability": "nonpayable",
      "type": "fallback"
    },
    {
      "anonymous": false,
      "inputs": [
        {
          "indexed": true,
          "name": "sender",
          "type": "address"
        },
        {
          "indexed": true,
          "name": "gameId",
          "type": "bytes32"
        },
        {
          "indexed": false,
          "name": "stake",
          "type": "uint256"
        },
        {
          "indexed": false,
          "name": "deadline",
          "type": "uint256"
        }
      ],
      "name": "LogMatchCreated",
      "type": "event"
    },
    {
      "anonymous": false,
      "inputs": [
        {
          "indexed": true,
          "name": "sender",
          "type": "address"
        },
        {
          "indexed": true,
          "name": "gameId",
          "type": "bytes32"
        },
        {
          "indexed": false,
          "name": "stake",
          "type": "uint256"
        },
        {
          "indexed": false,
          "name": "deadline",
          "type": "uint256"
        },
        {
          "indexed": false,
          "name": "hand",
          "type": "uint8"
        }
      ],
      "name": "LogMatchAccepted",
      "type": "event"
    },
    {
      "anonymous": false,
      "inputs": [
        {
          "indexed": true,
          "name": "sender",
          "type": "address"
        },
        {
          "indexed": true,
          "name": "gameId",
          "type": "bytes32"
        },
        {
          "indexed": true,
          "name": "winner",
          "type": "address"
        },
        {
          "indexed": false,
          "name": "firstPlayerWage",
          "type": "uint256"
        },
        {
          "indexed": false,
          "name": "secondPlayerWage",
          "type": "uint256"
        }
      ],
      "name": "LogMatchResolved",
      "type": "event"
    },
    {
      "anonymous": false,
      "inputs": [
        {
          "indexed": true,
          "name": "sender",
          "type": "address"
        },
        {
          "indexed": true,
          "name": "gameId",
          "type": "bytes32"
        }
      ],
      "name": "LogPunishCalled",
      "type": "event"
    },
    {
      "anonymous": false,
      "inputs": [
        {
          "indexed": true,
          "name": "sender",
          "type": "address"
        },
        {
          "indexed": true,
          "name": "gameId",
          "type": "bytes32"
        }
      ],
      "name": "LogCancelCalled",
      "type": "event"
    },
    {
      "anonymous": false,
      "inputs": [
        {
          "indexed": true,
          "name": "sender",
          "type": "address"
        },
        {
          "indexed": true,
          "name": "to",
          "type": "address"
        },
        {
          "indexed": false,
          "name": "amount",
          "type": "uint256"
        }
      ],
      "name": "LogBalanceIncreased",
      "type": "event"
    },
    {
      "anonymous": false,
      "inputs": [
        {
          "indexed": true,
          "name": "sender",
          "type": "address"
        },
        {
          "indexed": false,
          "name": "amount",
          "type": "uint256"
        }
      ],
      "name": "LogBalanceWithdraw",
      "type": "event"
    },
    {
      "anonymous": false,
      "inputs": [
        {
          "indexed": true,
          "name": "sender",
          "type": "address"
        },
        {
          "indexed": false,
          "name": "state",
          "type": "bool"
        }
      ],
      "name": "LogPaused",
      "type": "event"
    },
    {
      "anonymous": false,
      "inputs": [
        {
          "indexed": true,
          "name": "sender",
          "type": "address"
        }
      ],
      "name": "LogKilled",
      "type": "event"
    },
    {
      "anonymous": false,
      "inputs": [
        {
          "indexed": true,
          "name": "sender",
          "type": "address"
        },
        {
          "indexed": true,
          "name": "newOwner",
          "type": "address"
        }
      ],
      "name": "LogOwnerChanged",
      "type": "event"
    },
    {
      "constant": false,
      "inputs": [
        {
          "name": "hashedHand",
          "type": "bytes32"
        },
        {
          "name": "timeoutInHours",
          "type": "uint88"
        }
      ],
      "name": "createMatch",
      "outputs": [
        {
          "name": "",
          "type": "bytes32"
        }
      ],
      "payable": true,
      "stateMutability": "payable",
      "type": "function"
    },
    {
      "constant": false,
      "inputs": [
        {
          "name": "firstPlayerHashedHand",
          "type": "bytes32"
        },
        {
          "name": "secondPlayerClearHand",
          "type": "uint8"
        }
      ],
      "name": "acceptMatch",
      "outputs": [],
      "payable": true,
      "stateMutability": "payable",
      "type": "function"
    },
    {
      "constant": false,
      "inputs": [
        {
          "name": "firstPlayerHand",
          "type": "uint8"
        },
        {
          "name": "secret",
          "type": "uint256"
        }
      ],
      "name": "resolveMatch",
      "outputs": [],
      "payable": false,
      "stateMutability": "nonpayable",
      "type": "function"
    },
    {
      "constant": false,
      "inputs": [
        {
          "name": "firstPlayerHashedHand",
          "type": "bytes32"
        }
      ],
      "name": "punish",
      "outputs": [],
      "payable": false,
      "stateMutability": "nonpayable",
      "type": "function"
    },
    {
      "constant": false,
      "inputs": [
        {
          "name": "firstPlayerHand",
          "type": "uint8"
        },
        {
          "name": "secret",
          "type": "uint256"
        }
      ],
      "name": "cancelGame",
      "outputs": [],
      "payable": false,
      "stateMutability": "nonpayable",
      "type": "function"
    },
    {
      "constant": true,
      "inputs": [
        {
          "name": "hand",
          "type": "uint8"
        },
        {
          "name": "secret",
          "type": "uint256"
        }
      ],
      "name": "hashHand",
      "outputs": [
        {
          "name": "",
          "type": "bytes32"
        }
      ],
      "payable": false,
      "stateMutability": "view",
      "type": "function"
    }
  ],
  "bytecode": "0x608060405234801561001057600080fd5b506040516020806123388339810180604052602081101561003057600080fd5b810190808051906020019092919050505080336000806101000a81548173ffffffffffffffffffffffffffffffffffffffff021916908373ffffffffffffffffffffffffffffffffffffffff16021790555080600060146101000a81548160ff021916908315150217905550505061228b806100ad6000396000f3fe6080604052600436106100e85760003560e01c80636c9382d91161008a578063b187bd2611610059578063b187bd261461035d578063bd8fbe211461038c578063cea2e25a146103e8578063dc563c5c14610423576100e8565b80636c9382d9146102855780638456cb59146102c0578063893d20e8146102d757806399baa10c1461032e576100e8565b806316cd81b4116100c657806316cd81b4146101aa57806327e235e3146101f25780633ccfd60b1461025757806341c0e1b51461026e576100e8565b8063046f7da2146100fa5780630a5a68d81461011157806313af403514610159575b3480156100f457600080fd5b50600080fd5b34801561010657600080fd5b5061010f61047c565b005b34801561011d57600080fd5b506101576004803603604081101561013457600080fd5b81019080803560ff16906020019092919080359060200190929190505050610649565b005b34801561016557600080fd5b506101a86004803603602081101561017c57600080fd5b81019080803573ffffffffffffffffffffffffffffffffffffffff1690602001909291905050506108be565b005b3480156101b657600080fd5b506101f0600480360360408110156101cd57600080fd5b81019080803560ff16906020019092919080359060200190929190505050610ac0565b005b3480156101fe57600080fd5b506102416004803603602081101561021557600080fd5b81019080803573ffffffffffffffffffffffffffffffffffffffff169060200190929190505050610e2b565b6040518082815260200191505060405180910390f35b34801561026357600080fd5b5061026c610e43565b005b34801561027a57600080fd5b50610283610f71565b005b34801561029157600080fd5b506102be600480360360208110156102a857600080fd5b810190808035906020019092919050505061112f565b005b3480156102cc57600080fd5b506102d56112dc565b005b3480156102e357600080fd5b506102ec6114ab565b604051808273ffffffffffffffffffffffffffffffffffffffff1673ffffffffffffffffffffffffffffffffffffffff16815260200191505060405180910390f35b34801561033a57600080fd5b506103436114d4565b604051808215151515815260200191505060405180910390f35b34801561036957600080fd5b506103726114ea565b604051808215151515815260200191505060405180910390f35b34801561039857600080fd5b506103d2600480360360408110156103af57600080fd5b81019080803560ff16906020019092919080359060200190929190505050611500565b6040518082815260200191505060405180910390f35b610421600480360360408110156103fe57600080fd5b8101908080359060200190929190803560ff169060200190929190505050611644565b005b6104666004803603604081101561043957600080fd5b810190808035906020019092919080356affffffffffffffffffffff169060200190929190505050611ad0565b6040518082815260200191505060405180910390f35b600060159054906101000a900460ff161561049657600080fd5b6000809054906101000a900473ffffffffffffffffffffffffffffffffffffffff1673ffffffffffffffffffffffffffffffffffffffff163373ffffffffffffffffffffffffffffffffffffffff1614610558576040517f08c379a000000000000000000000000000000000000000000000000000000000815260040180806020018281038252601f8152602001807f43616e206f6e6c792062652063616c6c656420627920746865206f776e65720081525060200191505060405180910390fd5b600060149054906101000a900460ff166105da576040517f08c379a000000000000000000000000000000000000000000000000000000000815260040180806020018281038252601b8152602001807f54686520636f6e7472616374206d75737420626520706175736564000000000081525060200191505060405180910390fd5b60008060146101000a81548160ff0219169083151502179055503373ffffffffffffffffffffffffffffffffffffffff167f9885b484a3068de5c38fb9073ed8489371efc9514b9a174a9cd1df5326d2e4546000604051808215151515815260200191505060405180910390a2565b60006106558383611500565b9050600060026000838152602001908152602001600020600101549050600081116106e8576040517f08c379a00000000000000000000000000000000000000000000000000000000081526004018080602001828103825260088152602001807f4e6f207374616b6500000000000000000000000000000000000000000000000081525060200191505060405180910390fd5b4260026000848152602001908152602001600020600201541115610774576040517f08c379a00000000000000000000000000000000000000000000000000000000081526004018080602001828103825260178152602001807f446561646c696e6520686173206e6f742070617373656400000000000000000081525060200191505060405180910390fd5b6000600381111561078157fe5b6002600084815260200190815260200160002060000160009054906101000a900460ff1660038111156107b057fe5b1415610824576040517f08c379a00000000000000000000000000000000000000000000000000000000081526004018080602001828103825260198152602001807f43616e6e6f742063616e63656c2c2067616d65206973206f6e0000000000000081525060200191505060405180910390fd5b61082d82611e3f565b813373ffffffffffffffffffffffffffffffffffffffff167fe0538c81f11de7da12f713b1b2db71af87bb5e6b028cba17eb1a07637bcbd25960405160405180910390a33373ffffffffffffffffffffffffffffffffffffffff166108fc829081150290604051600060405180830381858888f193505050501580156108b7573d6000803e3d6000fd5b5050505050565b6000809054906101000a900473ffffffffffffffffffffffffffffffffffffffff1673ffffffffffffffffffffffffffffffffffffffff163373ffffffffffffffffffffffffffffffffffffffff1614610980576040517f08c379a000000000000000000000000000000000000000000000000000000000815260040180806020018281038252601f8152602001807f43616e206f6e6c792062652063616c6c656420627920746865206f776e65720081525060200191505060405180910390fd5b600073ffffffffffffffffffffffffffffffffffffffff168173ffffffffffffffffffffffffffffffffffffffff161415610a23576040517f08c379a00000000000000000000000000000000000000000000000000000000081526004018080602001828103825260118152602001807f6e65774f776e657220697320656d70747900000000000000000000000000000081525060200191505060405180910390fd5b806000806101000a81548173ffffffffffffffffffffffffffffffffffffffff021916908373ffffffffffffffffffffffffffffffffffffffff1602179055508073ffffffffffffffffffffffffffffffffffffffff163373ffffffffffffffffffffffffffffffffffffffff167ffcf23a92150d56e85e3a3d33b357493246e55783095eb6a733eb8439ffc752c860405160405180910390a350565b6000610acc8383611500565b9050600060026000838152602001908152602001600020600001600c9054906101000a900473ffffffffffffffffffffffffffffffffffffffff169050600073ffffffffffffffffffffffffffffffffffffffff168173ffffffffffffffffffffffffffffffffffffffff161415610bac576040517f08c379a000000000000000000000000000000000000000000000000000000000815260040180806020018281038252601d8152602001807f506c617965722074776f20686173206e6f74206a6f696e65642079657400000081525060200191505060405180910390fd5b600060026000848152602001908152602001600020600201549050804210610c3c576040517f08c379a000000000000000000000000000000000000000000000000000000000815260040180806020018281038252600f8152602001807f446561646c696e6520706173736564000000000000000000000000000000000081525060200191505060405180910390fd5b6000600260008581526020019081526020016000206001015490506000806000806002600089815260200190815260200160002060000160009054906101000a900460ff169050806003811115610c8f57fe5b8a6003811115610c9b57fe5b1415610cbc57610cb5600286611eec90919063ffffffff16565b9350610d38565b60036001826003811115610ccc57fe5b0160ff1681610cd757fe5b0660ff168a6003811115610ce757fe5b60ff1614610cf55786610cf7565b335b91508173ffffffffffffffffffffffffffffffffffffffff163373ffffffffffffffffffffffffffffffffffffffff1614610d33576000610d35565b845b93505b610d4b8486611f7b90919063ffffffff16565b9250610d5688611e3f565b8173ffffffffffffffffffffffffffffffffffffffff16883373ffffffffffffffffffffffffffffffffffffffff167f3ee2aa7957f8a7603edc63df917b6a9238e9bc8d7f3104116438a721163c10028787604051808381526020018281526020019250505060405180910390a46000851115610e1f57610dd78784612004565b3373ffffffffffffffffffffffffffffffffffffffff166108fc859081150290604051600060405180830381858888f19350505050158015610e1d573d6000803e3d6000fd5b505b50505050505050505050565b60016020528060005260406000206000915090505481565b6000600160003373ffffffffffffffffffffffffffffffffffffffff1673ffffffffffffffffffffffffffffffffffffffff16815260200190815260200160002054905060008111610e9457600080fd5b6000600160003373ffffffffffffffffffffffffffffffffffffffff1673ffffffffffffffffffffffffffffffffffffffff168152602001908152602001600020819055503373ffffffffffffffffffffffffffffffffffffffff167f5e26e1a51df37b08449f88d0f25b11970834ee857ac90f4e445d36d5bcdc9157826040518082815260200191505060405180910390a23373ffffffffffffffffffffffffffffffffffffffff166108fc829081150290604051600060405180830381858888f19350505050158015610f6d573d6000803e3d6000fd5b5050565b600060159054906101000a900460ff1615610f8b57600080fd5b6000809054906101000a900473ffffffffffffffffffffffffffffffffffffffff1673ffffffffffffffffffffffffffffffffffffffff163373ffffffffffffffffffffffffffffffffffffffff161461104d576040517f08c379a000000000000000000000000000000000000000000000000000000000815260040180806020018281038252601f8152602001807f43616e206f6e6c792062652063616c6c656420627920746865206f776e65720081525060200191505060405180910390fd5b600060149054906101000a900460ff166110cf576040517f08c379a000000000000000000000000000000000000000000000000000000000815260040180806020018281038252601b8152602001807f54686520636f6e7472616374206d75737420626520706175736564000000000081525060200191505060405180910390fd5b6001600060156101000a81548160ff0219169083151502179055503373ffffffffffffffffffffffffffffffffffffffff167fdd1d1672156846fdc9d6e65d5701535f177a41834051f5f7328be7f4252bcb3160405160405180910390a2565b42600260008381526020019081526020016000206002015411156111bb576040517f08c379a00000000000000000000000000000000000000000000000000000000081526004018080602001828103825260178152602001807f446561646c696e6520686173206e6f742070617373656400000000000000000081525060200191505060405180910390fd5b3373ffffffffffffffffffffffffffffffffffffffff1660026000838152602001908152602001600020600001600c9054906101000a900473ffffffffffffffffffffffffffffffffffffffff1673ffffffffffffffffffffffffffffffffffffffff161461122957600080fd5b60006002600083815260200190815260200160002060010154905061124d82611e3f565b813373ffffffffffffffffffffffffffffffffffffffff167ff79f7e0fb85fa016cb8cdef27e5b662934a15c1ea9e819c75af680acdab7abd960405160405180910390a33373ffffffffffffffffffffffffffffffffffffffff166108fc829081150290604051600060405180830381858888f193505050501580156112d7573d6000803e3d6000fd5b505050565b600060159054906101000a900460ff16156112f657600080fd5b6000809054906101000a900473ffffffffffffffffffffffffffffffffffffffff1673ffffffffffffffffffffffffffffffffffffffff163373ffffffffffffffffffffffffffffffffffffffff16146113b8576040517f08c379a000000000000000000000000000000000000000000000000000000000815260040180806020018281038252601f8152602001807f43616e206f6e6c792062652063616c6c656420627920746865206f776e65720081525060200191505060405180910390fd5b600060149054906101000a900460ff161561143b576040517f08c379a00000000000000000000000000000000000000000000000000000000081526004018080602001828103825260168152602001807f54686520636f6e7472616374206973207061757365640000000000000000000081525060200191505060405180910390fd5b6001600060146101000a81548160ff0219169083151502179055503373ffffffffffffffffffffffffffffffffffffffff167f9885b484a3068de5c38fb9073ed8489371efc9514b9a174a9cd1df5326d2e4546001604051808215151515815260200191505060405180910390a2565b60008060009054906101000a900473ffffffffffffffffffffffffffffffffffffffff16905090565b60008060159054906101000a900460ff16905090565b60008060149054906101000a900460ff16905090565b600080600381111561150e57fe5b83600381111561151a57fe5b141561158e576040517f08c379a00000000000000000000000000000000000000000000000000000000081526004018080602001828103825260098152602001807f4e756c6c2068616e64000000000000000000000000000000000000000000000081525060200191505060405180910390fd5b30338484604051602001808573ffffffffffffffffffffffffffffffffffffffff1673ffffffffffffffffffffffffffffffffffffffff1660601b81526014018473ffffffffffffffffffffffffffffffffffffffff1673ffffffffffffffffffffffffffffffffffffffff1660601b815260140183600381111561160f57fe5b60ff1660f81b815260010182815260200194505050505060405160208183030381529060405280519060200120905092915050565b60006002600084815260200190815260200160002060020154905060008114156116d6576040517f08c379a00000000000000000000000000000000000000000000000000000000081526004018080602001828103825260138152602001807f47616d6520646f6573206e6f742065786973740000000000000000000000000081525060200191505060405180910390fd5b80421061174b576040517f08c379a000000000000000000000000000000000000000000000000000000000815260040180806020018281038252600f8152602001807f446561646c696e6520706173736564000000000000000000000000000000000081525060200191505060405180910390fd5b6000600260008581526020019081526020016000206001015490503481146117db576040517f08c379a000000000000000000000000000000000000000000000000000000000815260040180806020018281038252600d8152602001807f496e76616c6964207374616b650000000000000000000000000000000000000081525060200191505060405180910390fd5b600060038111156117e857fe5b8360038111156117f457fe5b1415611868576040517f08c379a000000000000000000000000000000000000000000000000000000000815260040180806020018281038252600c8152602001807f496e76616c69642068616e64000000000000000000000000000000000000000081525060200191505060405180910390fd5b600073ffffffffffffffffffffffffffffffffffffffff1660026000868152602001908152602001600020600001600c9054906101000a900473ffffffffffffffffffffffffffffffffffffffff1673ffffffffffffffffffffffffffffffffffffffff1614611923576040517f08c379a000000000000000000000000000000000000000000000000000000000815260040180806020018281038252602181526020018061223f6021913960400191505060405180910390fd5b611984611975610e106002600088815260200190815260200160002060000160019054906101000a90046affffffffffffffffffffff166affffffffffffffffffffff1661210f90919063ffffffff16565b4261219590919063ffffffff16565b9150611999348261219590919063ffffffff16565b90503360026000868152602001908152602001600020600001600c6101000a81548173ffffffffffffffffffffffffffffffffffffffff021916908373ffffffffffffffffffffffffffffffffffffffff160217905550826002600086815260200190815260200160002060000160006101000a81548160ff02191690836003811115611a2257fe5b0217905550806002600086815260200190815260200160002060010181905550816002600086815260200190815260200160002060020181905550833373ffffffffffffffffffffffffffffffffffffffff167fd712950997bd4a6b050d5b36cad9ee58bcc270b3621e52fd7b78e36fef19769783858760405180848152602001838152602001826003811115611ab557fe5b60ff168152602001935050505060405180910390a350505050565b60008060149054906101000a900460ff1615611b54576040517f08c379a00000000000000000000000000000000000000000000000000000000081526004018080602001828103825260168152602001807f54686520636f6e7472616374206973207061757365640000000000000000000081525060200191505060405180910390fd5b600060159054906101000a900460ff1615611b6e57600080fd5b6000826affffffffffffffffffffff1611611bf1576040517f08c379a000000000000000000000000000000000000000000000000000000000815260040180806020018281038252601f8152602001807f54696d656f7574206d757374206265206174206c65617374203120686f75720081525060200191505060405180910390fd5b6000611c27611c18610e10856affffffffffffffffffffff1661210f90919063ffffffff16565b4261219590919063ffffffff16565b90506000600260008681526020019081526020016000206002015414611cb5576040517f08c379a000000000000000000000000000000000000000000000000000000000815260040180806020018281038252600d8152602001807f50617373776f726420757365640000000000000000000000000000000000000081525060200191505060405180910390fd5b60003490506040518060a0016040528060006003811115611cd257fe5b8152602001856affffffffffffffffffffff168152602001600073ffffffffffffffffffffffffffffffffffffffff168152602001828152602001838152506002600087815260200190815260200160002060008201518160000160006101000a81548160ff02191690836003811115611d4857fe5b021790555060208201518160000160016101000a8154816affffffffffffffffffffff02191690836affffffffffffffffffffff160217905550604082015181600001600c6101000a81548173ffffffffffffffffffffffffffffffffffffffff021916908373ffffffffffffffffffffffffffffffffffffffff1602179055506060820151816001015560808201518160020155905050843373ffffffffffffffffffffffffffffffffffffffff167f33b0093720be4add387c61126437bb10a9bbe628216ce961192a87e5006f1c178385604051808381526020018281526020019250505060405180910390a3505092915050565b60006002600083815260200190815260200160002060000160006101000a81548160ff02191690836003811115611e7257fe5b0217905550600060026000838152602001908152602001600020600001600c6101000a81548173ffffffffffffffffffffffffffffffffffffffff021916908373ffffffffffffffffffffffffffffffffffffffff1602179055506000600260008381526020019081526020016000206001018190555050565b6000808211611f63576040517f08c379a000000000000000000000000000000000000000000000000000000000815260040180806020018281038252601a8152602001807f536166654d6174683a206469766973696f6e206279207a65726f00000000000081525060200191505060405180910390fd5b6000828481611f6e57fe5b0490508091505092915050565b600082821115611ff3576040517f08c379a000000000000000000000000000000000000000000000000000000000815260040180806020018281038252601e8152602001807f536166654d6174683a207375627472616374696f6e206f766572666c6f77000081525060200191505060405180910390fd5b600082840390508091505092915050565b6000811161201157600080fd5b61206381600160008573ffffffffffffffffffffffffffffffffffffffff1673ffffffffffffffffffffffffffffffffffffffff1681526020019081526020016000205461219590919063ffffffff16565b600160008473ffffffffffffffffffffffffffffffffffffffff1673ffffffffffffffffffffffffffffffffffffffff168152602001908152602001600020819055508173ffffffffffffffffffffffffffffffffffffffff163373ffffffffffffffffffffffffffffffffffffffff167f8d6dc51e8945c5e6a4ddb872612ec2b1f5e375a97daebdbb6a03a64e7c659209836040518082815260200191505060405180910390a35050565b600080831415612122576000905061218f565b600082840290508284828161213357fe5b041461218a576040517f08c379a000000000000000000000000000000000000000000000000000000000815260040180806020018281038252602181526020018061221e6021913960400191505060405180910390fd5b809150505b92915050565b600080828401905083811015612213576040517f08c379a000000000000000000000000000000000000000000000000000000000815260040180806020018281038252601b8152602001807f536166654d6174683a206164646974696f6e206f766572666c6f77000000000081525060200191505060405180910390fd5b809150509291505056fe536166654d6174683a206d756c7469706c69636174696f6e206f766572666c6f774d6174636820636f6e74657374656420627920616e6f7468657220706c61796572a165627a7a7230582033d47785d5791e1721f4ca7cef8942672225d1e271c555d4785fcef209f9ee2d0029",
  "source": "pragma solidity >= 0.5.0 <0.6.0;\n\n\nimport \"./Pausable.sol\";\nimport \"./Balances.sol\";\n\ncontract RockPaperScissors is Pausable, Balances {\n\n  enum Hand {NULL, ROCK, PAPER, SCISSORS}\n\n  struct Game {\n    Hand secondPlayerHand;\n    uint88 timeout; // We make sure that secondPlayerHand, timeout and address are tightly packed, making it 32 bytes\n    address secondPlayer;\n    uint256 stake;\n    uint256 deadline;\n  }\n\n  mapping(bytes32 => Game) games;\n\n  event LogMatchCreated(\n    address indexed sender,\n    bytes32 indexed gameId,\n    uint256 stake,\n    uint256 deadline\n  );\n\n  event LogMatchAccepted(\n    address indexed sender,\n    bytes32 indexed gameId,\n    uint256 stake,\n    uint256 deadline,\n    Hand hand\n  );\n\n  event LogMatchResolved(\n    address indexed sender,\n    bytes32 indexed gameId,\n    address indexed winner,\n    uint256 firstPlayerWage,\n    uint256 secondPlayerWage\n  );\n\n  event LogPunishCalled(\n    address indexed sender,\n    bytes32 indexed gameId\n  );\n\n  event LogCancelCalled(\n    address indexed sender,\n    bytes32 indexed gameId\n  );\n\n  constructor(bool startPaused) Pausable(startPaused) public {}\n\n  /*\n    @dev: This function lets a player create a match. He / she must specify the challenged address\n    and a hidden hand that will act as game ID (key to the mapping)\n\n    @param secondPlayer address is the challenged player's address\n    @param bytes32 hashedHand is a hash obtained by calling hashHand() that will act as key.\n\n  */\n  function createMatch(bytes32 hashedHand, uint88 timeoutInHours) public payable mustBeRunning mustBeAlive returns (bytes32) {\n    require(timeoutInHours > 0, \"Timeout must be at least 1 hour\");\n    uint256 deadline = now.add(uint256(timeoutInHours).mul(1 hours));\n    require(games[hashedHand].deadline == 0, \"Password used\");\n\n    uint256 stake = msg.value;\n\n    games[hashedHand] = Game({\n      secondPlayerHand: Hand.NULL,\n      timeout: timeoutInHours,\n      secondPlayer: address(0),\n      deadline: deadline,\n      stake: stake\n    });\n\n    emit LogMatchCreated(msg.sender, hashedHand, stake, deadline);\n  }\n\n  /*\n    @dev: This function lets a player accept the match\n\n    @param firstPlayerHashedHand bytes32 is the game key\n    @param hand Hand the weapon choice\n    @param secret uint256 the secret used to hash the hand\n  */\n  function acceptMatch(bytes32 firstPlayerHashedHand, Hand secondPlayerClearHand) public payable {\n    uint256 deadline = games[firstPlayerHashedHand].deadline;\n    require(deadline != 0, \"Game does not exist\");\n    require(now < deadline, \"Deadline passed\");\n    uint256 stake = games[firstPlayerHashedHand].stake;\n    require(stake == msg.value, \"Invalid stake\");\n    require(secondPlayerClearHand != Hand.NULL, \"Invalid hand\");\n    require(games[firstPlayerHashedHand].secondPlayer == address(0), \"Match contested by another player\");\n\n    deadline = now.add(uint256(games[firstPlayerHashedHand].timeout).mul(1 hours));\n    stake = stake.add(msg.value);\n\n    games[firstPlayerHashedHand].secondPlayer = msg.sender;\n    games[firstPlayerHashedHand].secondPlayerHand = secondPlayerClearHand;\n    games[firstPlayerHashedHand].stake = stake;\n    games[firstPlayerHashedHand].deadline = deadline;\n\n    emit LogMatchAccepted(msg.sender, firstPlayerHashedHand, stake, deadline, secondPlayerClearHand);\n\n  }\n\n  /*\n    @dev: This function resolves a game, must be called by the game creator.\n\n    @param hand Hand the weapon choice\n    @param secret uint256 the secret used to hash the hand\n  */\n  function resolveMatch(Hand firstPlayerHand, uint256 secret) public {\n    bytes32 hashedHand = hashHand(firstPlayerHand, secret);\n    address secondPlayer = games[hashedHand].secondPlayer;\n    require(secondPlayer != address(0), \"Player two has not joined yet\");\n\n    uint256 deadline = games[hashedHand].deadline;\n    require(now < deadline, \"Deadline passed\");\n\n    uint256 stake = games[hashedHand].stake;\n    uint256 firstPlayerWage;\n    uint256 secondPlayerWage;\n    address winner;\n\n    Hand secondPlayerHand = games[hashedHand].secondPlayerHand;\n\n    if(firstPlayerHand == secondPlayerHand) { // Tie, we divide stake into two\n      firstPlayerWage = stake.div(2);\n    } else {\n      // Explanation:\n      // ROCK (0) => PAPER (1) => SCISSOR (2) => ROCK (0)\n      // If player 1 is to the right of player 2, he wins. Otherwise, he loses.\n      winner = uint8(firstPlayerHand) == ((uint8(secondPlayerHand) + 1) % 3) ? msg.sender : secondPlayer;\n      firstPlayerWage = msg.sender == winner ? stake : 0;\n    }\n\n    secondPlayerWage = stake.sub(firstPlayerWage); // Player 2 will get the remaining stake\n\n    zeroOutGameEntry(hashedHand);\n\n    emit LogMatchResolved(\n      msg.sender,\n      hashedHand,\n      winner, // if 0, tie\n      firstPlayerWage,\n      secondPlayerWage\n    );\n\n    if(stake > 0)  { // If there was a pool, update the balances\n      increaseBalance(secondPlayer, secondPlayerWage);\n      msg.sender.transfer(firstPlayerWage);\n    }\n  }\n\n  /*\n    @dev: This function lets the second player of a game punish the creator for not revealing\n    his / her hand.\n\n    @param firstPlayerHashedHand the key to the game's mapping\n  */\n  function punish(bytes32 firstPlayerHashedHand) public {\n    require(games[firstPlayerHashedHand].deadline <= now, \"Deadline has not passed\");\n    require(games[firstPlayerHashedHand].secondPlayer == msg.sender);\n\n    uint256 stake = games[firstPlayerHashedHand].stake;\n\n    zeroOutGameEntry(firstPlayerHashedHand);\n\n    emit LogPunishCalled(msg.sender, firstPlayerHashedHand);\n\n    msg.sender.transfer(stake);\n  }\n\n  /*\n    @dev: Lets the game's creator recover the stake after the timeout\n\n    @param hand Hand the weapon choice\n    @param secret uint256 the secret used to hash the hand\n  */\n  function cancelGame(Hand firstPlayerHand, uint256 secret) public {\n    bytes32 hashedHand = hashHand(firstPlayerHand, secret);\n\n    uint256 stake = games[hashedHand].stake;\n    // Does not make sense to cancel a game that has not stake. This allows us to filter\n    // both non-existant games and finished games.\n    require(stake > 0, \"No stake\");\n\n    require(games[hashedHand].deadline <= now, \"Deadline has not passed\");\n    require(games[hashedHand].secondPlayerHand != Hand.NULL, \"Cannot cancel, game is on\");\n\n    zeroOutGameEntry(hashedHand);\n\n    emit LogCancelCalled(msg.sender, hashedHand);\n\n    msg.sender.transfer(stake);\n  }\n\n  /*\n    @dev: This function lets the user pick a hand and hash it with a random secret, generated off-chain.\n\n    This also serves as key for the games mapping.\n\n    We could optimize the storage costs by adding the challenged player to the hash,\n    but this would mean that the hash ought to be shared out of band.\n\n    @param hand Hand the weapon choice\n    @param secret uint256 random secret to hide the hand\n  */\n  function hashHand(Hand hand, uint256 secret) public view returns (bytes32) {\n    require(hand != Hand.NULL, \"Null hand\");\n    return keccak256(abi.encodePacked(address(this), msg.sender, hand, secret));\n  }\n\n  /*\n    @dev: This function zeroes out game entries and reduces world state\n\n    @param gameId bytes32 the key to the mapping\n  */\n  function zeroOutGameEntry(bytes32 gameId) internal {\n    games[gameId].secondPlayerHand = Hand.NULL;\n    games[gameId].secondPlayer = address(0);\n    games[gameId].stake = 0;\n  }\n\n  /*\n    @dev: This function is the default callback for the contract.\n\n    We do not want to accept any ether if not by the appropiate methods, so we revert by default\n  */\n  function() external {\n    revert();\n  }\n\n}\n",
  "sourcePath": "/home/mad/personal/b9lab/ethereum/module-9/contracts/PrivateRockPaperScissors.sol",
  "compiler": {
    "name": "solc",
    "version": "0.5.7+commit.6da8b019.Emscripten.clang"
  },
  "schemaVersion": "3.0.10",
  "updatedAt": "2019-07-12T17:49:34.754Z",
  "devdoc": {
    "methods": {}
  },
  "userdoc": {
    "methods": {}
  }
}